:100000000C9466000C948E000C948E000C948E0060
:100010000C948E000C948E000C948E000C948E0028
:100020000C948E000C948E000C948E000C94D304CF
:100030000C948E000C948E000C948E000C948E0008
:100040000C9489040C948E000C9457040C94310485
:100050000C948E000C948E000C948E000C948E00E8
:100060000C948E000C948E00000000080002010029
:100070000003040700000000000000001112131428
:1000800015160A0B0C0D0E0F0001020304050000EB
:100090000000250028002B0000000000240027009D
:1000A0002A000404040404040404020202020202FA
:1000B000030303030303010204081020408001022C
:1000C00004081020010204081020940511241FBE0A
:1000D000CFEFD8E0DEBFCDBF11E0A0E0B1E0E4EBB0
:1000E000F2E102C005900D92AC32B107D9F722E0DF
:1000F000ACE2B1E001C01D92A037B207E1F710E019
:10010000C6E6D0E004C02197FE010E94EA08C53689
:10011000D107C9F70E9435060C9458090C940000C9
:10012000E1E4F1E0A089B18982E08C93A485B585F2
:100130001C92A685B7858FEC8C93108EA489B58907
:1001400086E08C93A289B3898C9180618C93A2897B
:10015000B3898C9188608C93A289B3898C918068D3
:100160008C930288F389E02D80818F7D80830895B0
:1001700090E0FC01EA54FF4F2491FC01EE55FF4F43
:100180008491882399F090E0880F991FFC01E8562C
:10019000FF4FA591B491FC01E257FF4F85919491D7
:1001A0008FB7F894EC91E22BEC938FBF0895CF9228
:1001B000DF92EF92FF920F931F93CF93DF936C0127
:1001C0007A018B01C0E0D0E0CE15DF0589F0D801BF
:1001D0006D918D01D601ED91FC910190F081E02DA2
:1001E000C6010995892B11F47E0102C02196ECCF3E
:1001F000C701DF91CF911F910F91FF90EF90DF909A
:10020000CF900895FC01918D828D981761F0828DB9
:10021000DF01A80FB11D5D968C91928D9F5F9F733A
:10022000928F90E008958FEF9FEF0895FC01918DDC
:10023000828D981731F0828DE80FF11D858D90E049
:1002400008958FEF9FEF0895FC01918D228D892FE6
:1002500090E0805C9F4F821B91098F7399270895CE
:1002600081E491E00E94240121E0892B09F420E03F
:10027000822F0895FC01848DDF01A80FB11DA35AC0
:10028000BF4F2C91848D90E001968F739927848FB6
:10029000A689B7892C93A089B1898C9180648C93AD
:1002A000938D848D981306C00288F389E02D808198
:1002B0008F7D80830895EF92FF920F931F93CF93CA
:1002C000DF93EC0181E0888F9B8D8C8D981305C0A6
:1002D000E889F989808185FD24C0F62E0B8D10E018
:1002E0000F5F1F4F0F731127E02E8C8DE8120CC08B
:1002F0000FB607FCFACFE889F989808185FFF5CF31
:10030000CE010E943A01F1CF8B8DFE01E80FF11D65
:10031000E35AFF4FF0820B8FEA89FB89808180626C
:1003200007C0EE89FF896083E889F989808180644C
:10033000808381E090E0DF91CF911F910F91FF903A
:10034000EF900895CF93DF93EC01888D8823C9F057
:10035000EA89FB89808185FD05C0A889B9898C91CE
:1003600086FD0FC00FB607FCF5CF808185FFF2CF69
:10037000A889B9898C9185FFEDCFCE010E943A0101
:10038000E7CFDF91CF91089580E090E0892B29F0AD
:100390000E94300181110C940000089590E0FC014E
:1003A000E859FF4F3491FC01EA54FF4F2491FC01BE
:1003B000EE55FF4FE491EE2309F43BC0332339F1AE
:1003C000333091F038F43130A9F0323001F584B592
:1003D0008F7D12C0373091F03830A1F03430B9F44D
:1003E000809180008F7D03C0809180008F77809303
:1003F00080000DC084B58F7784BD09C08091B000A6
:100400008F7703C08091B0008F7D8093B000F0E0C3
:10041000EE0FFF1FE257FF4FA591B4918FB7F894ED
:10042000EC91611103C020952E2301C02E2B2C933B
:100430008FBF08953FB7F89480912E0190912F01BE
:10044000A0913001B091310126B5A89B05C02F3F86
:1004500019F00196A11DB11D3FBFBA2FA92F982FEA
:100460008827820F911DA11DB11DBC01CD0142E065
:10047000660F771F881F991F4A95D1F708958F92AD
:100480009F92AF92BF92CF92DF92EF92FF926B0159
:100490007C010E941A024B015C01C114D104E104E9
:1004A000F104F1F00E941A02DC01CB0188199909CC
:1004B000AA09BB09883E9340A105B10570F321E06C
:1004C000C21AD108E108F10888EE880E83E0981E70
:1004D000A11CB11CC114D104E104F10419F7DDCF52
:1004E000FF90EF90DF90CF90BF90AF909F908F9054
:1004F00008958EBD00000DB407FEFDCF8EB50895A2
:10050000CF92DF92EF92FF92CF93DF93EC016032B4
:1005100082E078070CF03DC077FD06C0653B7105B1
:100520002CF064EB70E002C060E070E0898128E8A4
:1005300030E06901C81AD10887FDD394CC0CDD1CCA
:10054000CC0CDD1C0D2C000CEE08FF088A8128E580
:1005500032E0281B310987FD3395220F331F220F0C
:10056000331FC901330FAA0BBB0B9C01AD012C1922
:100570003D094E095F09DB010E94410924EB30E08F
:1005800040E050E00E941709C20ED31EE41EF51E83
:10059000B60188818C3080F5998148E850E0491B8C
:1005A000510997FD5395440F551F440F551F64176C
:1005B000750784F09A8128E532E0291B310997FDFF
:1005C0003395220F331F220F331FAB012617370736
:1005D0000CF4A90142505109440F551F2FB7F8944C
:1005E00090E0FC01EE0FFF1F8E0F9F1FFC01EA5DE4
:1005F000FD4F528341832FBFDF91CF91FF90EF904A
:10060000DF90CF9008950F931F93CF93DF931F92A6
:10061000CDB7DEB78C01DC018C918C3008F055C071
:10062000862F69830E94B800F8018081E82FF0E0EE
:100630009F01220F331FE20FF31FEA5DFD4F698117
:100640006F739081907C692B6083D80111961C9206
:10065000119712961C926CE00E94DE08BCE08B9F02
:10066000B001112440E050E09A01260F371FF90134
:10067000EE0FFF1F2E0F3F1FF901EA5DFD4F908126
:1006800096FD16C04F5F5F4F4C30510569F78111E1
:100690000FC01092800082E080938100109285004C
:1006A00010928400B19A80916F00826080936F00F5
:1006B000D801EC91F0E0CF01880F991FE80FF91FE6
:1006C000EA5DFD4F808180648083F80180810F9016
:1006D000DF91CF911F910F9108959CB59F7D9CBD97
:1006E0009CB5937F9CBD9CB59C7F9CBD9DB5916046
:1006F0009DBD682F80914C020E94CE0180915D02C9
:1007000090915E028230910538F0880F991F880F12
:10071000991F05970197F1F7089581E00C946D03F7
:100720001F93CF93DF931F92CDB7DEB7182F80E0D2
:100730000E946D03812F8F710E9479028FEF0E94BA
:10074000790289830E948D0389810F90DF91CF9177
:100750001F9108951F93CF93DF931F92CDB7DEB7FC
:10076000182F80E069830E946D03812F8F71806252
:100770000E947902182F6981862F0E9479020E94B7
:100780008D03812F0F90DF91CF911F91089580E00D
:100790000E94900381FD0BC0682F626080E00E9480
:1007A000AA0365E070E080E090E00C943F020895B9
:1007B000CF93DF931F92CDB7DEB780E00E946D0329
:1007C00081EE0E94790289830E948D0389810F90B6
:1007D000DF91CF910895EF92FF920F931F93CF93E4
:1007E000DF9300D0CDB7DEB7082F162F80E0498306
:1007F0007A830E946D03802F8F7180620E9479023C
:10080000082FE12E7A81F72E4981140F1E1531F041
:10081000F70181917F010E947902F8CF0E948D0338
:10082000802F0F900F90DF91CF911F910F91FF902C
:10083000EF9008950E94F0086115710579F0FB01B1
:1008400001900020E9F73197AF01461B570BDC01FF
:10085000ED91FC910280F381E02D099480E090E01D
:1008600008951F920F920FB60F9211242F933F936A
:100870004F935F936F937F938F939F93AF93BF93A8
:10088000EF93FF9381E491E00E943A01FF91EF9191
:10089000BF91AF919F918F917F916F915F914F9198
:1008A0003F912F910F900FBE0F901F9018951F92A0
:1008B0000F920FB60F9211242F938F939F93EF9364
:1008C000FF93E0915101F09152018081E091570135
:1008D000F091580182FD12C0908180915A018F5F82
:1008E0008F7320915B01821751F0E0915A01F0E083
:1008F000EF5BFE4F958F80935A0101C08081FF917D
:10090000EF919F918F912F910F900FBE0F901F909D
:1009100018951F920F920FB60F9211242F933F93A9
:100920008F939F93AF93BF93809133019091340144
:10093000A0913501B091360130912D0123E0230FB4
:100940002D3720F40196A11DB11D05C026E8230F07
:100950000296A11DB11D20932D0180933301909328
:100960003401A0933501B093360180912E0190910E
:100970002F01A0913001B09131010196A11DB11D4F
:1009800080932E0190932F01A0933001B0933101F9
:10099000BF91AF919F918F913F912F910F900FBE7B
:1009A0000F901F9018951F920F920FB60F9211245F
:1009B0002F933F934F935F936F937F938F939F9367
:1009C000AF93BF93EF93FF9380912C0187FF05C0F6
:1009D00010928500109284001BC020912C01022EE1
:1009E000000C330B80914A0290E02817390784F4F9
:1009F00080912C01082E000C990BFC01EE0FFF1FBB
:100A00008E0F9F1FFC01EA5DFD4F808186FD15C0A2
:100A100080912C018F5F80932C0120912C01022E5C
:100A2000000C330B80914A0290E028173907C4F478
:100A300080912C018C3064F113C080912C01082E20
:100A4000000C990BFC01EE0FFF1F8E0F9F1FFC0186
:100A5000EA5DFD4F808160E08F730E94CE01D8CFA8
:100A60008091840090918500049680349C4918F40C
:100A700080E49CE905C080918400909185000496F3
:100A800090938900809388008FEF80932C013BC066
:100A9000209184003091850080912C01082E000C5B
:100AA000990BFC01EE0FFF1F8E0F9F1FFC01EA5DEB
:100AB000FD4F81819281820F931F909389008093D3
:100AC000880080912C01082E000C990BFC01EE0F80
:100AD000FF1F8E0F9F1FFC01EA5DFD4F808186FF87
:100AE00012C080912C01082E000C990BFC01EE0F16
:100AF000FF1F8E0F9F1FFC01EA5DFD4F808161E0AB
:100B00008F730E94CE01FF91EF91BF91AF919F91A2
:100B10008F917F916F915F914F913F912F910F90A6
:100B20000FBE0F901F901895109244011092430130
:100B300088EE93E0A0E0B0E08093450190934601F9
:100B4000A0934701B09348018EE091E09093420159
:100B50008093410185EC90E090934E0180934D018C
:100B600084EC90E09093500180934F0180EC90E0F2
:100B7000909352018093510181EC90E09093540145
:100B80008093530182EC90E090935601809355013D
:100B900086EC90E0909358018093570110925A018F
:100BA00010925B0110925C0110925D011092E401C1
:100BB0001092E5011092E6011092E7011092E8010F
:100BC0001092E9011092EA011092EB011092EC01EF
:100BD0001092ED011092EE011092EF011092F001CF
:100BE0001092F1011092F2011092F30180914A02E9
:100BF000A1E6B2E09FEF48EB5BE08C3078F48C9399
:100C0000282F30E0F901EE0FFF1F2E0F3F1FF901D3
:100C1000EA5DFD4F528341838F5F01C09C93139621
:100C200022E0A037B20749F780934A0287E0809319
:100C30004B0288E080934C0210924F0280E2809336
:100C400050021092510285E08093570285E090E0B7
:100C5000A0E0B0E080935D0290935E02A0935F02FB
:100C6000B0936002109252020895CF93DF93CDB7F4
:100C7000DEB7A9970FB6F894DEBF0FBECDBF78944C
:100C800084B5826084BD84B5816084BD85B5826091
:100C900085BD85B5816085BD80916E008160809342
:100CA0006E001092810080918100826080938100AB
:100CB00080918100816080938100809180008160BB
:100CC000809380008091B10084608093B100809116
:100CD000B00081608093B00080917A00846080933E
:100CE0007A0080917A00826080937A0080917A0005
:100CF000816080937A0080917A00806880937A0086
:100D00001092C1001092220210922302109224022B
:100D1000109225021092E0011092E1011092E2017E
:100D20001092E30160ED77E080E090E00E943F02E6
:100D300081E491E090932102809320020E94900030
:100D40002FB7F8948091330190913401A09135012F
:100D5000B09136012FBF8093E0019093E101A09301
:100D6000E201B093E3016AE171E080912002909189
:100D700021020E941C046AE070E080E090E00E9482
:100D80003F0281E08093F4010E94900080914B0229
:100D900090914C0289130E94B80080914C0290916E
:100DA0004B0298130E94B8001FB7F894809132014B
:100DB000811124C0ECEAF0E08491E0ECF0E0949141
:100DC000E82FF0E0EE0FFF1FE856FF4FA591B4911A
:100DD000EC91E92321F461E08AE00E94CE018AE0EF
:100DE0000E94B8008CB580618CBD8CB580648CBDD0
:100DF0008DE00E94B8008BE00E94B8008091320123
:100E00008F5F809332011FBF80914B0290914C0203
:100E1000891719F060E00E94CE0181E00E946D0305
:100E200065E070E080E090E00E943F026CE080E0CE
:100E30000E94AA036FE584E00E94AA0386E00E9454
:100E40009003877D182F10628BE990E0A0E0B0E05E
:100E50008093590290935A02A0935B02B0935C0274
:100E6000612F86E00E94AA0386E00E94900381170A
:100E700009F477C186E00E94900386E00E94900307
:100E800045E550E060E070E04093590250935A020B
:100E900060935B0270935C02682F677D86E00E941E
:100EA000AA0386E00E94900380E00E946D0380E523
:100EB0000E94790283E70E9479020E948D0360E01C
:100EC0008DE10E94AA0360E08CE10E94AA0360E722
:100ED00087E00E94AA036CE485E00E94AA0380E0F8
:100EE0000E946D0382EE0E9479020E948D030E948F
:100EF000D8030E94C70380E00E949003682F6E7F92
:100F000080E00E94AA0386E00E949003887F682FF9
:100F1000656086E00E94AA0388E0809350028AEA16
:100F20008AA380EF8BA38CA38DA38EA31FA218A6E8
:100F300019A6E3E8F0E0849140915702BE016E5D8E
:100F40007F4F0E94EB03EDE7F0E084916091500247
:100F50000E94AA0382E00E949003E9E8F0E0E49195
:100F600061E070E001C0660FEA95EAF7682B82E065
:100F70000E94AA0362E070E08DE692E00E94030303
:100F800063E070E081E692E00E94030364E070E0B9
:100F900084E692E00E94030365E070E087E692E059
:100FA0000E94030366E070E08AE692E00E94030379
:100FB00098E8E92E90E0F92ECC24C394D12C3AE0A5
:100FC000432E512C612C712C44EBA42EB12C0E9489
:100FD000C70380E00E949003682F616080E00E9458
:100FE000AA0360E787E00E94AA0380914B029091D8
:100FF0004C02891719F061E00E94CE0180915202E3
:10100000882341F04091570262E572E08AE00E9435
:10101000EB030FC082E00E949003F7019491B601A8
:1010200001C0660F9A95EAF76095682382E00E94F6
:10103000AA038DE10E94900381FD0E94D80387E1FD
:101040000E94900380FF91C006C00E948D0360E75C
:1010500087E00E94AA032FB7F89480913301909102
:101060003401A0913501B09136012FBF2091370195
:1010700030913801821B930BA109B109893C91057C
:10108000A105B10508F46AC020913F0130914001EB
:1010900040E050E019A28E010F5D1F4FCA01B90157
:1010A000A30192010E94F508605DF80162938F012F
:1010B000211531054105510589F7BF0181E491E012
:1010C0000E941C0469E271E081E491E00E941C042A
:1010D00060913F0170914001653B710520F48DE600
:1010E00092E00E9480026091390170913A01653B63
:1010F000710578F481E692E00E94800280913901C6
:1011000090913A01B501681B790B84E692E00E9448
:10111000800260913B0170913C01653B710520F4B8
:1011200087E692E00E94800260913D0170913E014D
:10113000653B710520F48AE692E00E9480022FB799
:10114000F8948091330190913401A0913501B091D0
:1011500036012FBF90933801809337010E94C4015C
:1011600036CF81E080934F0285CE10915002183027
:1011700018F108E080915102811102C0101B01C0DA
:1011800010E080E00E946D0381E60E94790289E30D
:10119000882E81E0982E015038F08FEF0E9479025E
:1011A000F40181934F01F7CF112309F44ECF8FEF54
:1011B0000E9479021150F8CF012FDCCF991B79E002
:1011C00004C0991F961708F0961B881F7A95C9F7D7
:1011D00080950895EE0FFF1F0590F491E02D09947E
:1011E00081E090E0F8940C945809A1E21A2EAA1B11
:1011F000BB1BFD010DC0AA1FBB1FEE1FFF1FA217C7
:10120000B307E407F50720F0A21BB30BE40BF50BC3
:10121000661F771F881F991F1A9469F7609570954C
:10122000809590959B01AC01BD01CF010895052EDD
:1012300097FB1EF400940E942E0957FD07D00E94D0
:10124000F50807FC03D04EF40C942E0950954095F8
:10125000309521953F4F4F4F5F4F08959095809562
:10126000709561957F4F8F4F9F4F08950E94490958
:10127000A59F900DB49F900DA49F800D911D1124EA
:101280000895B7FF0C9436090E943609821B930B10
:101290000895A29FB001B39FC001A39F700D811D4F
:1012A0001124911DB29F700D811D1124911D08956F
:0412B000F894FFCFE0
:1012B40001000000000070028000000000005B01DB
:1012C400D700240102011601A201564D4450565F75
:0C12D400317C315F564D4450560D0A002D
:00000001FF
