:100000000C9466000C948E000C948E000C948E0060
:100010000C948E000C948E000C948E000C948E0028
:100020000C948E000C948E000C948E000C943B0566
:100030000C948E000C948E000C948E000C948E0008
:100040000C94F1040C948E000C94BF040C9499044D
:100050000C948E000C948E000C948E000C948E00E8
:100060000C948E000C948E00000000080002010029
:100070000003040700000000000000001112131428
:1000800015160A0B0C0D0E0F0001020304050000EB
:100090000000250028002B0000000000240027009D
:1000A0002A000404040404040404020202020202FA
:1000B000030303030303010204081020408001022C
:1000C00004081020010204081020FC0511241FBEA2
:1000D000CFEFD8E0DEBFCDBF11E0A0E0B1E0E6E1B8
:1000E000F5E102C005900D92A034B107D9F722E0E6
:1000F000A0E4B1E001C01D92A838B207E1F710E01A
:10010000C6E6D0E004C02197FE010E94230AC5364E
:10011000D107C9F70E949D060C94890A0C9400002F
:10012000E9E5F1E0A089B18982E08C93A485B585E9
:100130001C92A685B7858FEC8C93108EA489B58907
:1001400086E08C93A289B3898C9180618C93A2897B
:10015000B3898C9188608C93A289B3898C918068D3
:100160008C930288F389E02D80818F7D80830895B0
:1001700090E0FC01EA54FF4F2491FC01EE55FF4F43
:100180008491882399F090E0880F991FFC01E8562C
:10019000FF4FA591B491FC01E257FF4F85919491D7
:1001A0008FB7F894EC91E22BEC938FBF0895CF9228
:1001B000DF92EF92FF920F931F93CF93DF936C0127
:1001C0007A018B01C0E0D0E0CE15DF0589F0D801BF
:1001D0006D918D01D601ED91FC910190F081E02DA2
:1001E000C6010995892B11F47E0102C02196ECCF3E
:1001F000C701DF91CF911F910F91FF90EF90DF909A
:10020000CF900895FC01918D828D981761F0828DB9
:10021000DF01A80FB11D5D968C91928D9F5F9F733A
:10022000928F90E008958FEF9FEF0895FC01918DDC
:10023000828D981731F0828DE80FF11D858D90E049
:1002400008958FEF9FEF0895FC01918D228D892FE6
:1002500090E0805C9F4F821B91098F7399270895CE
:1002600089E591E00E94240121E0892B09F420E036
:10027000822F0895FC01848DDF01A80FB11DA35AC0
:10028000BF4F2C91848D90E001968F739927848FB6
:10029000A689B7892C93A089B1898C9180648C93AD
:1002A000938D848D981306C00288F389E02D808198
:1002B0008F7D80830895EF92FF920F931F93CF93CA
:1002C000DF93EC0181E0888F9B8D8C8D981305C0A6
:1002D000E889F989808185FD24C0F62E0B8D10E018
:1002E0000F5F1F4F0F731127E02E8C8DE8120CC08B
:1002F0000FB607FCFACFE889F989808185FFF5CF31
:10030000CE010E943A01F1CF8B8DFE01E80FF11D65
:10031000E35AFF4FF0820B8FEA89FB89808180626C
:1003200007C0EE89FF896083E889F989808180644C
:10033000808381E090E0DF91CF911F910F91FF903A
:10034000EF900895CF93DF93EC01888D8823C9F057
:10035000EA89FB89808185FD05C0A889B9898C91CE
:1003600086FD0FC00FB607FCF5CF808185FFF2CF69
:10037000A889B9898C9185FFEDCFCE010E943A0101
:10038000E7CFDF91CF91089580E090E0892B29F0AD
:100390000E94300181110C940000089590E0FC014E
:1003A000E859FF4F3491FC01EA54FF4F2491FC01BE
:1003B000EE55FF4FE491EE2309F43BC0332339F1AE
:1003C000333091F038F43130A9F0323001F584B592
:1003D0008F7D12C0373091F03830A1F03430B9F44D
:1003E000809180008F7D03C0809180008F77809303
:1003F00080000DC084B58F7784BD09C08091B000A6
:100400008F7703C08091B0008F7D8093B000F0E0C3
:10041000EE0FFF1FE257FF4FA591B4918FB7F894ED
:10042000EC91611103C020952E2301C02E2B2C933B
:100430008FBF08953FB7F89480914601909147018E
:10044000A0914801B091490126B5A89B05C02F3F56
:1004500019F00196A11DB11D3FBFBA2FA92F982FEA
:100460008827820F911DA11DB11DBC01CD0142E065
:10047000660F771F881F991F4A95D1F708958F92AD
:100480009F92AF92BF92CF92DF92EF92FF926B0159
:100490007C010E941A024B015C01C114D104E104E9
:1004A000F104F1F00E941A02DC01CB0188199909CC
:1004B000AA09BB09883E9340A105B10570F321E06C
:1004C000C21AD108E108F10888EE880E83E0981E70
:1004D000A11CB11CC114D104E104F10419F7DDCF52
:1004E000FF90EF90DF90CF90BF90AF909F908F9054
:1004F00008952FB7F8946091420170914301809163
:100500004401909145012FBF08958EBD00000DB4A8
:1005100007FEFDCF8EB508950F931F93CF93DF9302
:100520001F92CDB7DEB78C01DC018C918C3008F0C6
:1005300055C0862F69830E94B800F8018081E82F9A
:10054000F0E09F01220F331FE20FF31FE25CFD4F2B
:1005500069816F739081907C692B6083D8011196BB
:100560001C92119712961C926CE00E94170ABCE034
:100570008B9FB001112440E050E09A01260F371FF5
:10058000F901EE0FFF1F2E0F3F1FF901E25CFD4F37
:10059000908196FD16C04F5F5F4F4C30510569F753
:1005A00081110FC01092800082E080938100109230
:1005B000850010928400B19A80916F0082608093D0
:1005C0006F00D801EC91F0E0CF01880F991FE80F80
:1005D000F91FE25CFD4F808180648083F801808197
:1005E0000F90DF91CF911F910F9108958F929F925D
:1005F000AF92BF92EF92FF921F93CF93DF93653B31
:1006000008F05CC090E0FC01EE0FFF1F8E0F9F1FF3
:10061000FC01E758FD4F9281818110811C3008F068
:100620004DC028E532E07901E91AF10897FDF3940D
:10063000EE0CFF1CEE0CFF1CC8E8D0E0C81BD10973
:1006400087FDD395CC0FDD1FCC0FDD1F4E010D2E86
:10065000000CAA08BB08C7010F2C000CAA0BBB0B8F
:100660009C01AD01281939094A095B09A62FB0E0A0
:100670000E946F0A24EB30E040E050E00E94500AF4
:10068000820E931EA41EB51E8C169D062CF0E4014E
:10069000E814F9040CF4E7012297CC0FDD1F2FB703
:1006A000F894812F90E0FC01EE0FFF1F8E0F9F1F2B
:1006B000FC01E25CFD4FD283C1832FBFDF91CF915C
:1006C0001F91FF90EF90BF90AF909F908F900895F3
:1006D0009CB59F7D9CBD9CB5937F9CBD9CB59C7F2C
:1006E0009CBD9DB591609DBD682F809164020E9464
:1006F000CE0180917502909176028230910538F09A
:10070000880F991F880F991F05970197F1F7089592
:1007100081E00C94680380E00C946803CF93DF932E
:100720001F92CDB7DEB789830E948B0389818F71B9
:100730000E9485028FEF0E94850289830E948803B0
:1007400089810F90DF91CF9108951F93CF93DF930D
:1007500000D0CDB7DEB76A8389830E948B0389817D
:100760008F7180620E948502182F6A81862F0E94F5
:1007700085020E948803812F0F900F90DF91CF9107
:100780001F91089580E00E948E0381FD0BC0682FA9
:10079000626080E00E94A50365E070E080E090E088
:1007A0000C943F0208950F931F93CF938C0186E022
:1007B0000E948E03C82FC77D0230110531F4C0623C
:1007C0008BE990E0A0E0B0E00DC00130110529F008
:1007D00085E590E0A0E0B0E005C0C86081E490E06D
:1007E000A0E0B0E08093710290937202A093730234
:1007F000B09374026C2F86E00E94A50386E00E94ED
:100800008E0391E08C1390E0892FCF911F910F916F
:100810000895EF92FF920F931F93CF93DF9300D031
:100820001F92CDB7DEB7162F4A837B8389830E9440
:100830008B0389818F7180620E948502082FE12ECF
:100840007B81F72E4A81140F1E1531F0F70181913B
:100850007F010E948502F8CF0E948803802F0F90AD
:100860000F900F90DF91CF911F910F91FF90EF901C
:1008700008950E94290A6115710579F0FB01019024
:100880000020E9F73197AF01461B570BDC01ED91D2
:10089000FC910280F381E02D099480E090E00895BE
:1008A0004F925F926F927F92EF92FF920F931F93FE
:1008B000CF93DF93CDB7DEB7A1970FB6F894DEBF25
:1008C0000FBECDBF7C01FA01CB0119A2223008F482
:1008D0002AE08E010F5D1F4F422E512C612C712C8E
:1008E000BF01A30192010E942E0AF901CA01015021
:1008F00011096A3014F4605D01C0695CD8016C9321
:10090000232B242B252B61F7B801C7010E943B0440
:10091000A1960FB6F894DEBF0FBECDBFDF91CF9189
:100920001F910F91FF90EF907F906F905F904F908D
:1009300008951F920F920FB60F9211242F933F9399
:100940004F935F936F937F938F939F93AF93BF93D7
:10095000EF93FF9389E591E00E943A01FF91EF91B7
:10096000BF91AF919F918F917F916F915F914F91C7
:100970003F912F910F900FBE0F901F9018951F92CF
:100980000F920FB60F9211242F938F939F93EF9393
:10099000FF93E0916901F0916A018081E0916F011C
:1009A000F091700182FD12C09081809172018F5F81
:1009B0008F7320917301821751F0E0917201F0E082
:1009C000E75AFE4F958F8093720101C08081FF919D
:1009D000EF919F918F912F910F900FBE0F901F90CD
:1009E00018951F920F920FB60F9211242F933F93D9
:1009F0008F939F93AF93BF93809142019091430156
:100A0000A0914401B09145013091410123E0230FB1
:100A10002D3720F40196A11DB11D05C026E8230F36
:100A20000296A11DB11D2093410180934201909334
:100A30004301A0934401B0934501809146019091F8
:100A40004701A0914801B09149010196A11DB11D36
:100A50008093460190934701A0934801B0934901C8
:100A6000BF91AF919F918F913F912F910F900FBEAA
:100A70000F901F9018951F920F920FB60F9211248E
:100A80002F933F934F935F936F937F938F939F9396
:100A9000AF93BF93EF93FF938091400187FF05C011
:100AA00010928500109284001BC020914001022EFC
:100AB000000C330B8091620290E02817390784F410
:100AC00080914001082E000C990BFC01EE0FFF1FD6
:100AD0008E0F9F1FFC01E25CFD4F808186FD15C0DB
:100AE000809140018F5F8093400120914001022E50
:100AF000000C330B8091620290E028173907C4F490
:100B0000809140018C3064F113C080914001082E27
:100B1000000C990BFC01EE0FFF1F8E0F9F1FFC01B5
:100B2000E25CFD4F808160E08F730E94CE01D8CFE0
:100B30008091840090918500049680349C4918F43B
:100B400080E49CE905C08091840090918500049622
:100B500090938900809388008FEF809340013BC081
:100B6000209184003091850080914001082E000C76
:100B7000990BFC01EE0FFF1F8E0F9F1FFC01E25C23
:100B8000FD4F81819281820F931F90938900809302
:100B9000880080914001082E000C990BFC01EE0F9B
:100BA000FF1F8E0F9F1FFC01E25CFD4F808186FFBF
:100BB00012C080914001082E000C990BFC01EE0F31
:100BC000FF1F8E0F9F1FFC01E25CFD4F808161E0E3
:100BD0008F730E94CE01FF91EF91BF91AF919F91D2
:100BE0008F917F916F915F914F913F912F910F90D6
:100BF0000FBE0F901F90189510925C0110925B0130
:100C000088EE93E0A0E0B0E080935D0190935E01F8
:100C1000A0935F01B09360018EE091E090935A0140
:100C20008093590185EC90E0909366018093650173
:100C300084EC90E0909368018093670180EC90E0F1
:100C400090936A018093690181EC90E090936C012C
:100C500080936B0182EC90E090936E0180936D0124
:100C600086EC90E09093700180936F011092720176
:100C70001092730110927401109275011092FC0190
:100C80001092FD011092FE011092FF0110920002DD
:100C900010920102109202021092030210920402BA
:100CA000109205021092060210920702109208029A
:100CB0001092090210920A0210920B0280916202B5
:100CC000A9E7B2E09FEF48EB5BE08C3078F48C93BF
:100CD000282F30E0F901EE0FFF1F2E0F3F1FF90103
:100CE000E25CFD4F528341838F5F01C09C9313965A
:100CF00022E0A838B20749F78093620287E0809328
:100D0000630288E0809364021092670280E280931D
:100D100068021092690285E080936F0285E090E09E
:100D2000A0E0B0E08093750290937602A0937702E2
:100D3000B093780210926A020895CF93DF93CDB7F3
:100D4000DEB728970FB6F894DEBF0FBECDBF7894FC
:100D500084B5826084BD84B5816084BD85B58260C0
:100D600085BD85B5816085BD80916E008160809371
:100D70006E001092810080918100826080938100DA
:100D800080918100816080938100809180008160EA
:100D9000809380008091B10084608093B100809145
:100DA000B00081608093B00080917A00846080936D
:100DB0007A0080917A00826080937A0080917A0034
:100DC000816080937A0080917A00806880937A00B5
:100DD0001092C10010923A0210923B0210923C0213
:100DE00010923D021092F8011092F9011092FA014E
:100DF0001092FB0160ED77E080E090E00E943F02FE
:100E000089E591E090933902809338020E94900026
:100E10000E9479026093F8017093F9018093FA01BE
:100E20009093FB016AE171E0809138029091390260
:100E30000E943B046AE070E080E090E00E943F0284
:100E400081E080930C020E94900080916302909157
:100E5000640289130E94B800809164029091630239
:100E600098130E94B8001FB7F89480914A0181112D
:100E700024C0ECEAF0E08491E0ECF0E09491E82FFB
:100E8000F0E0EE0FFF1FE856FF4FA591B491EC91F3
:100E9000E92321F461E08AE00E94CE018AE00E9409
:100EA000B8008CB580618CBD8CB580648CBD8DE044
:100EB0000E94B8008BE00E94B80080914A018F5FC9
:100EC00080934A011FBF8091630290916402891749
:100ED00019F060E00E94CE0181E00E94680365E0A5
:100EE00070E080E090E00E943F026CE080E00E94B1
:100EF000A5036FE584E00E94A50382E090E00E94D4
:100F0000D303882319F081E08093670286E00E9472
:100F10008E0380E090E00E94D3030E948B0380E563
:100F20000E94850283E70E9485020E94880360E098
:100F30008DE10E94A50360E08CE10E94A50360E7BB
:100F400087E00E94A5036CE485E00E94A5030E944F
:100F50008B0382EE0E9485020E9488030E948B030D
:100F600081EE0E9485020E9488030E94C20380E0F5
:100F70000E948E03682F6E7F80E00E94A50386E0AA
:100F80000E948E03887F682F636086E00E94A5031D
:100F900084E0809368028DE10E948E03682F666072
:100FA0008DE10E94A5038CE10E948E03682F63608F
:100FB0008CE10E94A50381E08093690282E090E0C9
:100FC0000E94D3036CE685E00E94A50387E789832E
:100FD00085E38A8380EF8B8383ED8C8387EE8D831B
:100FE0001E821F821886E3E8F0E0849140916F0230
:100FF000BE016F5F7F4F0E940904EDE7F0E084912E
:10100000609168020E94A50382E00E948E03E9E8D5
:10101000F0E0E49161E070E001C0660FEA95EAF764
:10102000682B82E00E94A5030E94C20380E00E9418
:101030008E03682F616080E00E94A50360E787E06F
:101040000E94A5038091630290916402891719F0B0
:1010500061E00E94CE0180916A02882341F04091B4
:101060006F026AE672E08AE00E94090412C082E020
:101070000E948E03E8E8F0E0E49121E030E001C056
:10108000220FEA95EAF72095622F682382E00E94FA
:10109000A5038DE10E948E0381FF07C00E948B0390
:1010A00081EE0E9485020E94880362E070E085E87C
:1010B00092E00E948C0263E070E089E792E00E9477
:1010C0008C0264E070E08CE792E00E948C0265E0A4
:1010D00070E08FE792E00E948C0266E070E082E8A8
:1010E00092E00E948C0294EFC92EDD24D394E12C6F
:1010F000F12C24EBB22E0E947902672B682B692B0E
:1011000041F40E947902623071058105910508F46D
:101110000AC10E9479026093550170935601809331
:101120005701909358010091510110915201209163
:10113000530130915401601771078207930740F4FF
:101140006093510170935201809353019093540125
:10115000009151011091520120915301309154019D
:101160003B014C01601A710A820A930A94018301BF
:101170000A3F11052105310508F4D5C060935101DE
:10118000709352018093530190935401C0920402D2
:10119000D0920502E0920602F09207021092080235
:1011A0001092090210920A0210920B028091FC0127
:1011B0009091FD01A091FE01B091FF01809300028A
:1011C00090930102A0930202B09303020E9479025D
:1011D0006093FC017093FD018093FE019093FF01E9
:1011E0000E9479026093F8017093F9018093FA01EB
:1011F0009093FB010E9479022B013C016CE271E0AB
:1012000080913802909139020E943B042AE041E02B
:1012100050E060E070E080913802909139020E94C5
:10122000500463E371E080913802909139020E948A
:101230003B042AE0B301A201809138029091390267
:101240000E94500465E371E0809138029091390268
:101250000E943B048091FC019091FD01A091FE0150
:10126000B091FF01B301A201481B590B6A0B7B0B24
:101270002AE080913802909139020E94500465E37F
:1012800071E080913802909139020E943B044091B4
:10129000FC015091FD016091FE017091FF01809170
:1012A000000290910102A0910202B0910302481B3A
:1012B000590B6A0B7B0B2AE080913802909139021E
:1012C0000E94500467E371E08091380290913902E6
:1012D0000E943B040E947902AB01BC012AE080918C
:1012E0003802909139020E94500400913802109106
:1012F000390269E371E0C8010E943B0469E271E0D0
:10130000C8010E943B0462E070E080E090E00E942F
:101310003F020E9479026093FC017093FD0180936B
:10132000FE019093FF0187E10E948E0380FF57C06A
:1013300006C00E94880360E787E00E94A5030E9420
:101340008B0389EA0E948502809150010E948502E8
:101350000E9488030E94790220914B0130914C0138
:10136000DC01CB01821B930BA109B109893C9105DA
:10137000A105B10588F14091500150E060E070E0B6
:101380002AE089E591E00E94500469E271E089E574
:1013900091E00E943B046091500184E00E94F602BB
:1013A00060914D0180E00E94F60280914D016B2D0D
:1013B000681B81E00E94F60260914E0182E00E946B
:1013C000F60260914F0183E00E94F6020E947902CA
:1013D00070934C0160934B010E94C4018CCE10911C
:1013E0006802143010F104E080916902811102C09A
:1013F000101B01C010E00E948B0381E60E94850251
:101400008DE4682E81E0782E015038F08FEF0E9435
:101410008502F30181933F01F7CF112309F489CFAE
:101420008FEF0E9485021150F8CF012FDDCF991B5D
:1014300079E004C0991F961708F0961B881F7A95CB
:10144000C9F780950895EE0FFF1F0590F491E02DE8
:10145000099481E090E0F8940C94890AA1E21A2E94
:10146000AA1BBB1BFD010DC0AA1FBB1FEE1FFF1F48
:10147000A217B307E407F50720F0A21BB30BE40B98
:10148000F50B661F771F881F991F1A9469F76095DF
:101490007095809590959B01AC01BD01CF01089599
:1014A000052E97FB1EF400940E94670A57FD07D093
:1014B0000E942E0A07FC03D04EF40C94670A509544
:1014C0004095309521953F4F4F4F5F4F0895909530
:1014D0008095709561957F4F8F4F9F4F08950E9423
:1014E0007A0AA59F900DB49F900DA49F800D911D29
:1014F00011240895A29FB001B39FC001A39F700D56
:10150000811D1124911DB29F700D811D1124911D0B
:061510000895F894FFCFDE
:1015160001000000000088028000000000005B015E
:10152600D700240102011601A201564D4450565F10
:10153600317C315F564D4450560D0A00564D44508D
:10154600455F003A323A007C005F564D44504500F4
:00000001FF
