:1000000091C30000C0C30000BEC30000BCC3000019
:10001000BAC30000B8C30000B6C30000B4C30000F8
:10002000B2C30000B0C30000AEC30000ACC3000008
:10003000AAC30000A8C30000A6C30000A4C3000018
:10004000A2C30000A0C300009EC300009CC3000028
:100050009AC3000098C3000096C300000C941318C4
:1000600092C300000C9411170C94E8168CC3000086
:100070008AC3000088C3000086C3000084C3000058
:1000800082C3000080C300007EC300007CC3000068
:100090007AC3000078C3000076C3000074C3000078
:1000A00072C3000070C300006EC300006CC3000088
:1000B0006AC3000068C3000066C3000064C3000098
:1000C00062C3000060C300005EC300005CC30000A8
:1000D0005AC3000058C3000056C3000054C30000B8
:1000E00052C300007617791768176C177017B0178E
:1000F0007D17811787178B178F17951799179D17DE
:10010000B017A317A717AB171112131415160A0B64
:100110000C0D0E0F00010203040500002100240055
:1001200027002A002D0030003300010100000401E7
:1001300007010A01010210202008081020401020A9
:10014000408002010201080402010102040810209B
:100150004080804020100804020180040201804099
:100160002010080402010804020101020408102002
:100170004080010204081020408000002200250079
:1001800028002B002E003100340002010000050180
:1001900008010B0105050505070508080808020206
:1001A00002020A0A08080404040401010101010111
:1001B00001010303030303030303040707070C0CF4
:1001C0000C0C0C0C0C0C02020202060606060606BB
:1001D00006060B0B0B0B0B0B0B0B00000A0B02099B
:1001E0000C0D0E08070304010000000000000000D1
:1001F00000000000000000000000000000000000FF
:1002000000000000000012111000000000000000BB
:1002100000000000000000000000000000000000DE
:1002200000000000003E5B4F5B3E3E6B4F6B3E1C90
:100230003E7C3E1C183C7E3C181C577D571C1C5EA7
:100240007F5E1C00183C1800FFE7C3E7FF0018247E
:100250001800FFE7DBE7FF30483A060E2629792928
:1002600026407F050507407F05253F5A3CE73C5A5D
:100270007F3E1C1C08081C1C3E7F14227F22145F3A
:100280005F005F5F06097F017F006689956A606095
:1002900060606094A2FFA29408047E040810207E8F
:1002A000201008082A1C08081C2A08081E10101014
:1002B000100C1E0C1E0C30383E3830060E3E0E065A
:1002C000000000000000005F0000000700070014AD
:1002D0007F147F14242A7F2A12231308646236496C
:1002E0005620500008070300001C22410000412254
:1002F0001C002A1C7F1C2A08083E08080080703059
:1003000000080808080800006060002010080402C7
:100310003E5149453E00427F4000724949494621CD
:1003200041494D331814127F1027454545393C4A41
:100330004949314121110907364949493646494958
:10034000291E0000140000004034000000081422A0
:10035000411414141414004122140802015909060E
:100360003E415D594E7C1211127C7F494949363E0F
:10037000414141227F4141413E7F494949417F09F5
:100380000909013E414151737F0808087F00417F00
:1003900041002040413F017F081422417F404040FE
:1003A000407F021C027F7F0408107F3E4141413E96
:1003B0007F090909063E4151215E7F091929462618
:1003C0004949493203017F01033F4040403F1F201C
:1003D00040201F3F4038403F6314081463030478F3
:1003E00004036159494D43007F4141410204081013
:1003F00020004141417F040201020440404040404E
:10040000000307080020545478407F2844443838BB
:1004100044444428384444287F385454541800082D
:100420007E090218A4A49C787F0804047800447D07
:1004300040002040403D007F1028440000417F40A4
:10044000007C047804787C080404783844444438F8
:10045000FC1824241818242418FC7C0804040848D8
:100460005454542404043F44243C4040207C1C2029
:1004700040201C3C4030403C44281028444C909084
:10048000907C4464544C44000836410000007700DE
:1004900000004136080002010204023C2623263CEB
:1004A0001EA1A161123A4040207A38545455592176
:1004B000555579412254547842215554784020545E
:1004C0005579400C1E5272123955555559395454AC
:1004D000545939555454580000457C410002457D1B
:1004E000420001457C407D1211127DF0282528F044
:1004F0007C545545002054547C547C0A097F493271
:10050000494949323A4444443A324A4848303A41E7
:1005100041217A3A42402078009DA0A07D3D424290
:10052000423D3D4040403D3C24FF2424487E494319
:10053000662B2FFC2F2BFF0929F620C0887E09038C
:1005400020545479410000447D413048484A3238B3
:100550004040227A007A0A0A727D0D19317D2629DF
:10056000292F28262929292630484D4020380808D7
:10057000080808080808382F10C8ACBA2F1028340B
:10058000FA00007B000008142A142222142A1408FE
:100590005500550055AA55AA55AAFF55FF55FF000D
:1005A0000000FF00101010FF00141414FF001010C2
:1005B000FF00FF1010F010F0141414FC001414F7D6
:1005C00000FF0000FF00FF1414F404FC14141710C3
:1005D0001F10101F101F1414141F00101010F00013
:1005E0000000001F101010101F10101010F010004D
:1005F0000000FF101010101010101010FF1000005D
:1006000000FF140000FF00FF00001F10170000FC97
:1006100004F414141710171414F404F40000FF0069
:10062000F714141414141414F700F71414141714F2
:1006300010101F101F141414F4141010F010F000F8
:10064000001F101F0000001F14000000FC14000019
:10065000F010F01010FF10FF141414FF14101010FD
:100660001F00000000F010FFFFFFFFFFF0F0F0F0B0
:10067000F0FFFFFF0000000000FFFF0F0F0F0F0F44
:100680003844443844FC4A4A4A347E020206060290
:100690007E027E0263554941633844443C04407EF7
:1006A000201E2006027E020299A5E7A5991C2A4970
:1006B0002A1C4C7201724C304A4D4D3030487848FB
:1006C00030BC625A463D3E494949007E0101017EE7
:1006D0002A2A2A2A2A44445F444440514A4440403A
:1006E000444A51400000FF0103E080FF0000080879
:1006F0006B6B083612362436060F090F06000018F9
:10070000180000001010003040FF0101001F01011F
:100710001E00191D1712003C3C3C3C00000000006C
:100720003942D94411241FBECFEFD1E2DEBFCDBF85
:1007300000E00CBF13E0A0E0B2E0ECECF4E900E074
:100740000BBF02C007900D92AC36B107D9F726E077
:10075000ACE6B3E001C01D92AE32B207E1F713E0A0
:10076000C1E9D3E000E006C021970109802FFE0116
:100770000E94A345C039D10780E00807A9F70E946D
:1007800053310C94554A3CCCAF92BF92CF92DF923A
:10079000EF92FF920F931F93CF93DF93EC017A01B7
:1007A000D901E98DFA8D90818DA189238083888D6F
:1007B0008111FEC48D89823089F0833021F181302E
:1007C00079F5EFEEF0E09F01201B310BCB015F01CB
:1007D000A41AB50A8D01D5017B0113C08FEE90E0FC
:1007E0009C012A1B3B0BDC01A61BB70B8FE391E09E
:1007F000AC01401B510B8C010E191F09C8015D0192
:100800007A01B9010FC08FE391E09C012A1B3B0BD9
:10081000861B970B5A01D8018C01B701790102C0E0
:10082000CA015B014B8D5C8DFA0130812EA123231F
:1008300020832EB12F7C2EB97398A59820910201A8
:10084000277E20930201209102012F79209302013B
:100850004D8D5E8DFA0130812FA1232320834D8D94
:100860005E8DFA0130812BA1232B20832EB12F7CAA
:100870002EB97398A59A20910201277E28602093B3
:100880000201209102012F79209302014D8D5E8D8E
:10089000FA0130812FA1232320834D8D5E8DFA0133
:1008A00030812BA1232B20834B8D5C8DFA0130816D
:1008B0002AA1232B20834EB1272F33276901CC0C8B
:1008C000DD1CCC0CDD1C5C2D50734F7C452B4EB9D0
:1008D0004EB16901D594C794D594C7945C2D5870D6
:1008E000477F452B4EB944B36901CC0CDD1C5C2D10
:1008F00050724F7D452B44BB40910201690153E08A
:10090000D594C7945A95E1F75C2D5871477E452BD5
:100910004093020140910201E5E0220F331FEA9566
:10092000E1F72076342F3F79232B209302014D8D60
:100930005E8DFA0130812FA1232320834D8D5E8DA2
:10094000FA0130812BA1232B20834EB19B01332749
:10095000B901660F771F660F771F60734F7C462BB8
:100960004EB94EB1B90175956795759567956870E3
:10097000477F462B4EB944B3B901660F771F6072AB
:100980004F7D462B44BB40910201B901F3E07595C0
:100990006795FA95E1F76871477E462B409302010F
:1009A0006091020145E0220F331F4A95E1F720765E
:1009B0006F79262B209302014D8D5E8DFA013081D7
:1009C0002FA1232320834D8D5E8DFA0130812BA131
:1009D000232B20834B8D5C8DFA0130812EA12323A4
:1009E00020832EB12F7C2EB97398A59820910201F7
:1009F000277E20930201209102012F79209302018A
:100A00004D8D5E8DFA0130812FA1232320834D8DE2
:100A10005E8DFA0130812BA1232B20832EB12F7CF8
:100A20002EB97398A59A20910201277E2860209301
:100A30000201209102012F792062209302014D8D45
:100A40005E8DFA0130812FA1232320834D8D5E8D91
:100A5000FA0130812BA1232B20834B8D5C8DFA0171
:100A600030812AA1232B20834EB12B2F3327B901AC
:100A7000660F771F660F771F60734F7C462B4EB94A
:100A80004EB1B90175956795759567956870477F03
:100A9000462B4EB944B3B901660F771F60724F7D84
:100AA000462B44BB40910201B901E3E0759567957F
:100AB000EA95E1F76871477E462B40930201409129
:100AC0000201F5E0220F331FFA95E1F72076342F6B
:100AD0003F79232B209302014D8D5E8DFA013081E9
:100AE0002FA1232320834D8D5E8DFA0130812BA110
:100AF000232B20832EB1BB27AD01440F551F440F7C
:100B0000551F40732F7C242B2EB92EB1AD01559566
:100B10004795559547954870277F242B2EB924B3C8
:100B2000AD01440F551F40722F7D242B24BB209113
:100B30000201AD01E3E055954795EA95E1F748716B
:100B4000277E242B2093020120910201F5E0AA0FB9
:100B5000BB1FFA95E1F7A0762F79A22BA093020193
:100B6000AD8DBE8D3C912FA123232C93AD8DBE8DD9
:100B70003C912BA1232B2C93AB8DBC8D3C912EA1B2
:100B800023232C932EB12F7C2EB97398A5982091F6
:100B90000201277E20930201209102012F792093E8
:100BA0000201AD8DBE8D3C912FA123232C93AD8DE1
:100BB000BE8D3C912BA1232B2C932EB12F7C2EB9D3
:100BC0007398A59A20910201277E28602093020144
:100BD000209102012F79206420930201AD8DBE8DFA
:100BE0003C912FA123232C93AD8DBE8D3C912BA145
:100BF000232B2C93AB8DBC8D3C912AA1232B2C93C2
:100C00004EB12F2D3327B901660F771F660F771F5F
:100C100060734F7C462B4EB94EB1B90175956795FF
:100C2000759567956870477F462B4EB944B3B901F7
:100C3000660F771F60724F7D462B44BB40910201C7
:100C4000B901F3E075956795FA95E1F76871477E0C
:100C5000462B4093020140910201A5E0220F331F71
:100C6000AA95E1F72076342F3F79232B20930201B8
:100C7000AD8DBE8D3C912FA123232C93AD8DBE8DC8
:100C80003C912BA1232B2C934EB197013327B90113
:100C9000660F771F660F771F60734F7C462B4EB928
:100CA0004EB1B90175956795759567956870477FE1
:100CB000462B4EB944B3B901660F771F60724F7D62
:100CC000462B44BB40910201B901F3E0759567954D
:100CD000FA95E1F76871477E462B409302014091F7
:100CE0000201A5E0220F331FAA95E1F720764F7984
:100CF000242B20930201AD8DBE8D3C912FA1232387
:100D00002C93AD8DBE8D3C912BA1232B2C93AB8DC1
:100D1000BC8D3C912EA123232C932EB12F7C2EB978
:100D20007398A59820910201277E209302012091BB
:100D300002012F7920930201AD8DBE8D3C912FA130
:100D400023232C93AD8DBE8D3C912BA1232B2C9373
:100D50002EB12F7C2EB97398A59A20910201277E7F
:100D60002860209302012091020120662093020155
:100D7000AD8DBE8D3C912FA123232C93AD8DBE8DC7
:100D80003C912BA1232B2C93AB8DBC8D3C912AA1A4
:100D9000232B2C934EB1212F3327B901660F771FD8
:100DA000660F771F60734F7C462B4EB94EB1B90169
:100DB00075956795759567956870477F462B4EB911
:100DC00044B3B901660F771F60724F7D462B44BB59
:100DD00040910201B901A3E075956795AA95E1F7E5
:100DE0006871477E462B4093020140910201B5E0B5
:100DF000220F331FBA95E1F72076342F3F79232B4A
:100E000020930201AD8DBE8D3C912FA123232C9305
:100E1000AD8DBE8D3C912BA1232B2C932EB1112790
:100E2000A801440F551F440F551F40732F7C242BDE
:100E30002EB92EB1A80155954795559547954870FF
:100E4000277F242B2EB924B3A801440F551F4072CD
:100E50002F7D242B24BB20910201A801E3E05595AE
:100E60004795EA95E1F74871277E242B20930201EC
:100E700020910201F5E0000F111FFA95E1F70076CD
:100E80002F79022B00930201AD8DBE8D3C912FA1D5
:100E900023232C93AD8DBE8D3C912BA1232B2C9322
:100EA000AB8DBC8D3C912EA123232C932EB12F7C96
:100EB0002EB97398A59820910201277E20930201F4
:100EC000209102012F7920930201AD8DBE8D3C91BE
:100ED0002FA123232C93AD8DBE8D3C912BA1232BD1
:100EE0002C932EB12F7C2EB9739AA59820910201D4
:100EF000277E20930201209102012F792093020185
:100F0000AD8DBE8D3C912FA123232C93AD8DBE8D35
:100F10003C912BA1232B2C93AB8DBC8D3C912AA112
:100F2000232B2C934EB12B2D3327B901660F771F3E
:100F3000660F771F60734F7C462B4EB94EB1B901D7
:100F400075956795759567956870477F462B4EB97F
:100F500044B3B901660F771F60724F7D462B44BBC7
:100F600040910201B90153E0759567955A95E1F7F3
:100F70006871477E462B409302014091020165E073
:100F8000220F331F6A95E1F72076342F3F79232B08
:100F900020930201AD8DBE8D3C912FA123232C9374
:100FA000AD8DBE8D3C912BA1232B2C932EB1F50141
:100FB000FF27AF01440F551F440F551F40732F7C6F
:100FC000242B2EB92EB1AF015595479555954795D0
:100FD0004870277F242B2EB924B3AF01440F551F2F
:100FE00040722F7D242B24BB20910201AF0113E01E
:100FF000559547951A95E1F74871277E242B209344
:1010000002012091020105E0EE0FFF1F0A95E1F7B2
:10101000E0762F79E22BE0930201ED8DFE8D308199
:101020002FA123232083ED8DFE8D30812BA1232B37
:101030002083EB8DFC8D30812EA1232320832EB1C4
:101040002F7C2EB97398A59820910201277E2093BA
:101050000201209102012F7920930201ED8DFE8D76
:1010600030812FA123232083ED8DFE8D30812BA194
:10107000232B20832EB12F7C2EB9739AA598209113
:101080000201277E20930201209102012F79206224
:1010900020930201ED8DFE8D30812FA1232320832B
:1010A000ED8DFE8D30812BA1232B2083EB8DFC8DCC
:1010B00030812AA1232B20834EB1292F3327B90158
:1010C000660F771F660F771F60734F7C462B4EB9F4
:1010D0004EB1B90175956795759567956870477FAD
:1010E000462B4EB944B3B901660F771F60724F7D2E
:1010F000462B44BB40910201B901A3E07595679569
:10110000AA95E1F76871477E462B40930201409112
:101110000201B5E0220F331FBA95E1F72076342F94
:101120003F79232B20930201ED8DFE8D30812FA17D
:1011300023232083ED8DFE8D30812BA1232B208353
:101140002EB19927AC01440F551F440F551F407312
:101150002F7C242B2EB92EB1AC0155954795559572
:1011600047954870277F242B2EB924B3AC01440F38
:10117000551F40722F7D242B24BB20910201AC010E
:1011800063E0559547956A95E1F74871277E242BD2
:10119000209302012091020175E0880F991F7A9532
:1011A000E1F78076922F9F79892B8093020154C3B7
:1011B000813009F05EC3EB8DFC8D90818EA1892377
:1011C00080838EB18F7C8EB97398A598809102012F
:1011D000877E80930201809102018F7980648093E1
:1011E0000201ED8DFE8D90818FA189238083ED8D8D
:1011F000FE8D90818BA1892B8083EB8DFC8D90815E
:101200008AA1892B80832EB1872F9927AC01440FA7
:10121000551F440F551F40732F7C242B2EB92EB120
:10122000AC0155954795559547954870277F242BD8
:101230002EB924B3AC01440F551F40722F7D242BCF
:1012400024BB20910201AC01E3E055954795EA9556
:10125000E1F74871277E242B20930201209102019F
:10126000F5E0880F991FFA95E1F78076922F9F7924
:10127000892B80930201ED8DFE8D90818FA18923B2
:101280008083ED8DFE8D90818BA1892B8083EB8DEA
:10129000FC8D90818EA1892380838EB18F7C8EB945
:1012A0007398A59880910201877E809302018091B6
:1012B0000201806680930201ED8DFE8D90818FA1E9
:1012C00089238083ED8DFE8D90818BA1892B808376
:1012D000EB8DFC8D90818AA1892B80838EB19B013F
:1012E0003327A901440F551F440F551F40738F7CAE
:1012F000842B8EB98EB1A901559547955595479583
:101300004870877F842B8EB984B3A901440F551F81
:1013100040728F7D842B84BB80910201A901E3E0A0
:1013200055954795EA95E1F74871877E842B809320
:10133000020160910201F5E0220F331FFA95E1F7F7
:1013400020766F79262B20930201ED8DFE8D908102
:101350008FA189238083ED8DFE8D90818BA1892BB8
:101360008083EB8DFC8D90818EA1892380838EB14B
:101370008F7C80618EB97398A59880910201877ED9
:1013800080930201809102018F7980648093020131
:10139000ED8DFE8D90818FA189238083ED8DFE8D53
:1013A00090818BA1892B8083EB8DFC8D90818AA10C
:1013B000892B80832EB18F2D9927AC01440F551FA7
:1013C000440F551F40732F7C242B2EB92EB1AC0136
:1013D00055954795559547954870277F242B2EB9ED
:1013E00024B3AC01440F551F40722F7D242B24BB26
:1013F00020910201AC01E3E055954795EA95E1F7AC
:101400004871277E242B2093020120910201F5E0F0
:10141000880F991FFA95E1F78076922F9F79892B93
:1014200080930201ED8DFE8D90818FA189238083B1
:10143000ED8DFE8D90818BA1892B8083EB8DFC8DB2
:1014400090818EA1892380838EB18F7C80618EB93B
:101450007398A59880910201877E80930201809104
:101460000201806680930201ED8DFE8D90818FA137
:1014700089238083ED8DFE8D90818BA1892B8083C4
:10148000EB8DFC8D90818AA1892B80838EB1970191
:101490003327A901440F551F440F551F40738F7CFC
:1014A000842B8EB98EB1A9015595479555954795D1
:1014B0004870877F842B8EB984B3A901440F551FD0
:1014C00040728F7D842B84BB80910201A901E3E0EF
:1014D00055954795EA95E1F74871877E842B80936F
:1014E000020140910201F5E0220F331FFA95E1F766
:1014F00020764F79242B20930201ED8DFE8D908173
:101500008FA189238083ED8DFE8D90818BA1892B06
:101510008083EB8DFC8D90818EA1892380838EB199
:101520008F7C80618EB97398A59880910201877E27
:1015300080930201809102018F7980930201ED8DE9
:10154000FE8D90818FA189238083ED8DFE8D90810A
:101550008BA1892B8083EB8DFC8D90818AA1892BB7
:1015600080832EB18B2F9927AC01440F551F440F58
:10157000551F40732F7C242B2EB92EB1AC015595ED
:101580004795559547954870277F242B2EB924B34E
:10159000AC01440F551F40722F7D242B24BB20919A
:1015A0000201AC01E3E055954795EA95E1F74871F2
:1015B000277E242B2093020120910201F5E0880F61
:1015C000991FFA95E1F78076922F9F79892B809366
:1015D0000201ED8DFE8D90818FA189238083ED8D99
:1015E000FE8D90818BA1892B8083EB8DFC8D90816A
:1015F0008EA1892380838EB18F7C80618EB9739890
:10160000A59880910201877E80930201809102015A
:101610008F79806280930201ED8DFE8D90818FA184
:1016200089238083ED8DFE8D90818BA1892B808312
:10163000EB8DFC8D90818AA1892B80832EB1CD0109
:101640009927AC01440F551F440F551F40732F7C41
:10165000242B2EB92EB1AC0155954795559547953C
:101660004870277F242B2EB924B3AC01440F551F9B
:1016700040722F7D242B24BB20910201AC0163E03A
:10168000559547956A95E1F74871277E242B20935D
:101690000201A091020175E0880F991F7A95E1F788
:1016A0008076AF798A2B80930201ED8DFE8D90813B
:1016B0008FA189238083ED8DFE8D90818BA1892B55
:1016C0008083EB8DFC8D90818EA1892380838EB1E8
:1016D0008F7C80628EB97398A59880910201877E75
:1016E00080930201809102018F7980930201ED8D38
:1016F000FE8D90818FA189238083ED8DFE8D908159
:101700008BA1892B8083EB8DFC8D90818AA1892B05
:1017100080832EB1812F9927AC01440F551F440FB0
:10172000551F40732F7C242B2EB92EB1AC0155953B
:101730004795559547954870277F242B2EB924B39C
:10174000AC01440F551F40722F7D242B24BB2091E8
:101750000201AC0133E0559547953A95E1F74871A0
:10176000277E242B209302012091020145E0880F5F
:10177000991F4A95E1F78076922F9F79892B809364
:101780000201ED8DFE8D90818FA189238083ED8DE7
:10179000FE8D90818BA1892B8083EB8DFC8D9081B8
:1017A0008EA1892380838EB18F7C80628EB97398DD
:1017B000A59880910201877E8093020180910201A9
:1017C0008F79806280930201ED8DFE8D90818FA1D3
:1017D00089238083ED8DFE8D90818BA1892B808361
:1017E000EB8DFC8D90818AA1892B80838EB111278E
:1017F0009801220F331F220F331F20738F7C822BFF
:101800008EB98EB198013595279535952795287015
:10181000877F822B8EB984B39801220F331F2072E9
:101820008F7D822B84BB809102019801E3E0359586
:101830002795EA95E1F72871877E822B8093020134
:1018400020910201F5E0000F111FFA95E1F70076F3
:101850002F79022B00930201ED8DFE8D90818FA1D7
:1018600089238083ED8DFE8D90818BA1892B8083D0
:101870002FC08250823060F5AB01770F660B770B7B
:10188000BA0155274427C901330FAA0BBB0B9A0194
:10189000AB01282B392B4A2B5B2B6AE2CE010E942D
:1018A000C62CC701FF0CAA0BBB0BBC015527442754
:1018B000012E000C220B330BDB01CA01802B912B74
:1018C000A22BB32B9C01AD016BE2CE010E94C62C72
:1018D000E98DFA8D908189A1892B8083DF91CF9149
:1018E0001F910F91FF90EF90DF90CF90BF90AF903E
:1018F0000895EF92FF920F931F93CF93DF93EC0124
:10190000790177FD55C557FD53C5888599856817B9
:1019100079070CF04DC58A859B85481759070CF04F
:1019200047C5E98DFA8D90818DA189238083888DAB
:101930008111D3C18D89823059F08330B1F081306B
:10194000D1F48FEE90E0841B950BAB01BC0113C06A
:101950008FEE90E09C01261B370BB9018FE391E0DD
:101960009C01241B350BA90106C08FE391E0861B67
:10197000970BBA01AC01EB8DFC8D90818EA1892370
:1019800080838EB18F7C8EB97398A5988091020167
:10199000877E80930201809102018F7980930201FA
:1019A000ED8DFE8D90818FA189238083ED8DFE8D3D
:1019B00090818BA1892B80838EB18F7C8EB9739A95
:1019C000A59880910201877E809302018091020197
:1019D0008F7980930201ED8DFE8D90818FA18923F7
:1019E0008083ED8DFE8D90818BA1892B8083EB8D83
:1019F000FC8D90818AA1892B80832EB1872F992716
:101A0000FC01EE0FFF1FEE0FFF1FE0732F7C2E2B4C
:101A10002EB92EB1FC01F595E795F595E795E8709F
:101A2000277F2E2B2EB924B3FC01EE0FFF1FE0728F
:101A30002F7D2E2B24BB20910201FC0103E0F595A4
:101A4000E7950A95E1F7E871277E2E2B2093020196
:101A50002091020135E0880F991F3A95E1F78076D1
:101A6000922F9F79892B80930201ED8DFE8D9081BD
:101A70008FA189238083ED8DFE8D90818BA1892B91
:101A800080838EB177279B01220F331F220F331FD4
:101A900020738F7C822B8EB98EB19B013595279553
:101AA000359527952870877F822B8EB984B39B014B
:101AB000220F331F20728F7D822B84BB8091020105
:101AC0009B01B3E035952795BA95E1F72871877E9C
:101AD000822B809302018091020115E0660F771F2F
:101AE0001A95E1F760768F79682B60930201ED8D8E
:101AF000FE8D90818FA189238083ED8DFE8D908155
:101B00008BA1892B8083EB8DFC8D90818EA1892305
:101B100080838EB18F7C8EB97398A59880910201D5
:101B2000877E80930201809102018F798093020168
:101B3000ED8DFE8D90818FA189238083ED8DFE8DAB
:101B400090818BA1892B80838EB18F7C8EB9739A03
:101B5000A59880910201877E809302018091020105
:101B60008F79806280930201ED8DFE8D90818FA12F
:101B700089238083ED8DFE8D90818BA1892B8083BD
:101B8000EB8DFC8D90818AA1892B80832EB1852FCE
:101B90009927BC01660F771F660F771F60732F7C34
:101BA000262B2EB92EB1BC01759567957595679555
:101BB0006870277F262B2EB924B3BC01660F771FD0
:101BC00060722F7D262B24BB20910201BC01A3E073
:101BD00075956795AA95E1F76871277E262B209366
:101BE000020120910201B5E0880F991FBA95E1F733
:101BF0008076922F9F79892B80930201ED8DFE8D47
:101C000090818FA189238083ED8DFE8D90818BA1A2
:101C1000892B80838EB155279A01220F331F220F03
:101C2000331F20738F7C822B8EB98EB19A0135952C
:101C30002795359527952870877F822B8EB984B399
:101C40009A01220F331F20728F7D822B84BB8091DB
:101C500002019A0163E0359527956A95E1F72871AD
:101C6000877E822B809302018091020175E0440FF0
:101C7000551F7A95E1F740768F79482B4093020102
:101C8000ED8DFE8D90818FA189238083ED8DFE8D5A
:101C900090818BA1892B8083EB8DFC8D90818EA10F
:101CA000892380838EB18F7C8EB97398A59880919B
:101CB0000201877E80930201809102018F798093D7
:101CC0000201ED8DFE8D90818FA189238083ED8DA2
:101CD000FE8D90818BA1892B14C2813009F0B2C294
:101CE000ED89E150E33028F4F0E0E55EFD4F8081BE
:101CF00001C080E0EB8DFC8D20819EA1922390831A
:101D00009EB19F7C90619EB97398A59A90910201B3
:101D1000977E90930201909102019F799064909335
:101D20000201ED8DFE8D20819FA192239083ED8D88
:101D3000FE8D20819BA1922B9083EB8DFC8D2081C9
:101D40009AA1922B90839EB19F7C9EB92EB190E078
:101D5000FC01F595E795F595E795E870277F2E2B23
:101D60002EB9A59820910201B3E095958795BA9573
:101D7000E1F78871922F977E892B809302018091E1
:101D800002018F7980930201ED8DFE8D90818FA1EC
:101D900089238083ED8DFE8D90818BA1892B80839B
:101DA000EB8DFC8D90818EA1892380838EB18F7CF9
:101DB0008EB97398A59880910201877E8093020165
:101DC000809102018F79806480930201ED8DFE8DF8
:101DD00090818FA189238083ED8DFE8D90818BA1D1
:101DE000892B8083EB8DFC8D90818AA1892B808348
:101DF0002EB1872F9927FC01EE0FFF1FEE0FFF1F5B
:101E0000E0732F7C2E2B2EB92EB1FC01F595E795B2
:101E1000F595E795E870277F2E2B2EB924B3FC01AA
:101E2000EE0FFF1FE0722F7D2E2B24BB20910201AD
:101E3000FC01B3E0F595E795BA95E1F7E871277EE7
:101E40002E2B209302012091020115E0880F991F8B
:101E50001A95E1F78076922F9F79892B8093020162
:101E6000ED8DFE8D90818FA189238083ED8DFE8D78
:101E700090818BA1892B8083EB8DFC8D90818EA12D
:101E8000892380838EB18F7C8EB97398A5988091B9
:101E90000201877E80930201809102018066809317
:101EA0000201ED8DFE8D90818FA189238083ED8DC0
:101EB000FE8D90818BA1892B8083EB8DFC8D908191
:101EC0008AA1892B80838EB177279B01220F331F34
:101ED000220F331F20738F7C822B8EB98EB19B0112
:101EE00035952795359527952870877F822B8EB954
:101EF00084B39B01220F331F20728F7D822B84BB02
:101F0000809102019B01F3E035952795FA95E1F761
:101F10002871877E822B8093020180910201A5E0C7
:101F2000660F771FAA95E1F760768F79682B60932B
:101F30000201ED8DFE8D90818FA189238083ED8D2F
:101F4000FE8D90818BA1892B8083EB8DFC8D908100
:101F50008EA1892380838EB18F7C80618EB9739826
:101F6000A59880910201877E8093020180910201F1
:101F70008F79806480930201ED8DFE8D90818FA119
:101F800089238083ED8DFE8D90818BA1892B8083A9
:101F9000EB8DFC8D90818AA1892B80832EB1852FBA
:101FA0009927BC01660F771F660F771F60732F7C20
:101FB000262B2EB92EB1BC01759567957595679541
:101FC0006870277F262B2EB924B3BC01660F771FBC
:101FD00060722F7D262B24BB20910201BC01E3E01F
:101FE00075956795EA95E1F76871277E262B209312
:101FF000020120910201F5E0880F991FFA95E1F79F
:102000008076922F9F79892B80930201ED8DFE8D32
:1020100090818FA189238083ED8DFE8D90818BA18E
:10202000892B8083EB8DFC8D90818EA18923808309
:102030008EB18F7C80618EB97398A59880910201D2
:10204000877E809302018091020180668093020165
:10205000ED8DFE8D90818FA189238083ED8DFE8D86
:1020600090818BA1892B8083EB8DFC8D90818AA13F
:10207000892B80838EB155279A01220F331F220F9F
:10208000331F20738F7C822B8EB98EB19A013595C8
:102090002795359527952870877F822B8EB984B335
:1020A0009A01220F331F20728F7D822B84BB809177
:1020B00002019A0103E0359527950A95E1F7287109
:1020C000877E822B809302018091020195E0440F6C
:1020D000551F9A95E1F740768F79482B409302017E
:1020E000ED8DFE8D90818FA189238083ED8DFE8DF6
:1020F00090818BA1892B8083EB8DFC8D90818EA1AB
:10210000892380838EB18F7C8EB9739AA598809134
:102110000201877E80930201809102018F798064A1
:1021200080930201ED8DFE8D90818FA189238083A4
:10213000ED8DFE8D90818BA1892B8083EB8DFC8DA5
:1021400090818AA1892B80832EB18F2D9927AC0194
:10215000440F551F440F551F40732F7C242B2EB95D
:102160002EB1AC0155954795559547954870277FF9
:10217000242B2EB924B3AC01440F551F40722F7D80
:10218000242B24BB20910201AC01F3E05595479527
:10219000FA95E1F74871277E242B209302012091C4
:1021A0000201A5E0880F991FAA95E1F78076922F8A
:1021B0009F79892B80930201ED8DFE8D90818FA1F7
:1021C00089238083ED8DFE8D90818BA1892B808367
:1021D0008EB1FF249701220F331F220F331F20736C
:1021E0008F7C822B8EB98EB19701359527953595C9
:1021F00027952870877F822B8EB984B39701220F91
:10220000331F20728F7D822B84BB80910201970146
:1022100093E0359527959A95E1F72871877E822B73
:102220008093020180910201970145E0220F331F44
:102230004A95E1F7922F90768F79E92EE82AE0927D
:102240000201A4C08250823008F0ACC00A851B8510
:10225000015011092885398521503109CE010E948C
:10226000C403E98DFA8D90818DA189238083EB8D44
:10227000FC8D90818EA1892380838EB180638EB97D
:10228000739AA59880910201877E809302018091C4
:1022900002018F7980930201ED8DFE8D90818FA1D7
:1022A00089238083ED8DFE8D90818BA1892B808386
:1022B000EB8DFC8D90818AA1892B80838EB19F2D1F
:1022C000990F990F90738F7C892B8EB98EB19F2DAA
:1022D000969596959870877F892B8EB984B39F2D9C
:1022E000990F90728F7D892B84BB809102019F2D65
:1022F0009695969596959871877E892B8093020185
:10230000809102019F2D9295990F90768F79892B5C
:1023100080930201ED8DFE8D90818FA189238083B2
:10232000ED8DFE8D90818BA1892B80838EB19E2DAA
:10233000990F990F90738F7C892B8EB98EB197016D
:1023400036952795369527952870877F822B8EB9ED
:1023500084B39E2D990F90728F7D892B84BB8091C1
:102360000201970143E0369527954A95E1F72871D8
:10237000877E822B80930201909102018E2D82959F
:10238000880F80769F79892B80930201ED8DFE8DD9
:1023900090818FA189238083ED8DFE8D90818BA10B
:1023A000892B8083E98DFA8D908189A1892B808387
:1023B000DF91CF911F910F91FF90EF900895EF92D1
:1023C000FF920F931F93CF93DF93EC011982188232
:1023D0001B821A821D821C8261157105A9F17B0185
:1023E000FB0101900020E9F731978F01061B170BC5
:1023F000B8016F5F7F4F80E090E00E94B946009780
:1024000059F0998388831B830A832C813D81232B78
:1024100081F4FC0110820DC088819981009711F030
:102420000E944648198218821D821C821B821A82D1
:102430000BC01D830C83B701DF91CF911F910F91CA
:10244000FF90EF900C94AA47DF91CF911F910F91CD
:10245000FF90EF9008958F929F92BF92CF92DF925C
:10246000EF92FF920F931F93CF93DF931F92CDB7FD
:10247000DEB74C01B62E6901498390D47C014981B5
:10248000009709F448C0DC01ED91FC911197309759
:1024900009F443C013969C9180E0891731F02081A4
:1024A000241729F033968F5FF8CFE0E0F0E0D601F3
:1024B000ED93FC93309799F122812695269530E093
:1024C0002031310514F02FE030E081E090E0A0E011
:1024D000B0E004C0880F991FAA1FBB1F2A95D2F72E
:1024E0000197F801918380836B2D80EE0BD688EDE8
:1024F0002CD6682FD70114968C91882339F0F401DB
:10250000EA58FF4F80818260682B01C0697F88EDA7
:10251000F9D580E005C086ED03C087ED01C08BEDE5
:102520000F90DF91CF911F910F91FF90EF90DF906F
:10253000CF90BF909F908F900895EEE8F3E0A08930
:10254000B18982E08C93A485B5851C92A685B78558
:102550008FEC8C93108EA489B58986E08C93A28928
:10256000B3898C9180618C93A289B3898C918860A6
:102570008C93A289B3898C9180688C930288F389AB
:10258000E02D80818F7D80830895CF93DF939CB56C
:102590009F7D9CBD9CB5937F9CBD9CB59C7F9CBD45
:1025A0009DB591609DBDCAE0D6E0682F89816FD44A
:1025B0008A899B89DF91CF91E7C41F93CF93DF93E3
:1025C0001F92CDB7DEB7182F80E06983DEDF812F41
:1025D0008F7180620E942225182F6981862F0E94A8
:1025E000222581E0D2DF812F0F90DF91CF911F91C3
:1025F0000895CF93C82F80E0C8DF8C2F8F710E9481
:1026000022258FEF0E942225C82F81E0BEDF8C2F6C
:10261000CF910895EF92FF920F931F93CF93DF9383
:102620001F921F92CDB7DEB7082F162F80E0498387
:102630007A83ABDF802F8F7180620E942225082F62
:10264000E12E7A81F72E4981140F1E1531F0F70122
:1026500081917F010E942225F8CF81E096DF802FB3
:102660000F900F90DF91CF911F910F91FF90EF90FE
:102670000895CF93C82F80E088DF8C2F0E942225F9
:10268000C82F81E082DF8C2FCF910895682F809131
:102690000A0690910B068913FAC3089590E0FC0195
:1026A000EC5CFE4F2491FC01EC56FE4F8491882394
:1026B00099F090E0880F991FFC01E65EFE4FA5910E
:1026C000B491FC01E658FE4F859194918FB7F89430
:1026D000EC91E22BEC938FBF089588EF0E9449257F
:1026E000807C8034A1F018F4882301F108958038AB
:1026F00019F0803CB9F0089588ED0E94492581FDCC
:102700000BC069EC88ED0E942C2582E00CC088ED9E
:102710000E94492581FDF5CF6BEC88ED0E942C25A8
:1027200083E001C081E080938D03089561ED88ED21
:102730000E942C2510928D030895CF93DF93FC0106
:10274000448155816081718182E994E00E94283141
:10275000EC0162ED72E082E994E00E94242A8C0F81
:102760009D1FDF91CF9108958F929F92AF92BF925C
:10277000CF92EF920F93CF931F921F921F921F92AF
:102780001F921F92812C912CA12CB12CC12CE42ED4
:1027900005E020E040E00E941229C82F6CE271E0C1
:1027A00080E090E0FCD30F900F900F900F900F906F
:1027B0000F908C2FCF910F91EF90CF90BF90AF9053
:1027C0009F908F9008958F929F92AF92BF92CF92D9
:1027D000EF920F931F921F923F932F935F934F930C
:1027E0004A01A12CB12CCC24C394E12C06E020E8B2
:1027F00040E00E9412290F900F900F900F900F90C1
:102800000F900F91EF90CF90BF90AF909F908F90CF
:102810000895E091AB04F091AC0490818091B304F1
:10282000892B8083E091AF04F091B0049081809176
:10283000B504892B8083E091B104F091B2049081BA
:102840008091B604892B80838091BB04882359F042
:1028500060E01DD362E070E080E090E0A0D361E032
:102860008091BB0414D3E091AB04F091AC0490814F
:102870008091B70489238083E091AD04F091AE0488
:1028800090818091B804892380838EB18F7C8EB92A
:102890007398A59880910201877E809302018091B0
:1028A00002018F7980930201E091AF04F091B004AE
:1028B00090818091B90489238083E091AF04F091E5
:1028C000B00490818091B504892B808383E0E091EE
:1028D000AF04F091B00420819091B90492239083C9
:1028E000E091AF04F091B00420819091B504922B57
:1028F0009083815061F7E091AB04F091AC0490813A
:102900008091B304892B808308954F925F926F92D8
:102910007F92EF92FF920F931F93CF93DF93CDB7E8
:10292000DEB7A1970FB6F894DEBF0FBECDBF7C0116
:10293000FA01CB0119A2223008F42AE08E010F5DC2
:102940001F4F422E512C612C712CBF01A30192010B
:102950000E94FE49F901CA01015011096A3014F4BC
:10296000605D01C0695CD8016C93232B242B252B5F
:1029700061F7B801C7010E94242AA1960FB6F89406
:10298000DEBF0FBECDBFDF91CF911F910F91FF90A2
:10299000EF907F906F905F904F9008950F931F93EB
:1029A000CF93DF93EC010E94242A8C0162ED72E048
:1029B000CE010E94242A800F911FDF91CF911F9199
:1029C0000F910895FC01918D828D981761F0828D91
:1029D000DF01A80FB11D5D968C91928D9F5F9F7353
:1029E000928F90E008958FEF9FEF0895FC01918DF5
:1029F000828D981731F0828DE80FF11D858D90E062
:102A000008958FEF9FEF0895FC01918D228D892FFE
:102A100090E0805C9F4F821B91098F7399270895E6
:102A20008EE893E0F1DF21E0892B09F420E0822F8A
:102A30000895FC01848DDF01A80FB11DA35ABF4F7B
:102A40002C91848D90E001968F739927848FA689AD
:102A5000B7892C93A089B1898C9180648C93938DD4
:102A6000848D981306C00288F389E02D80818F7DC4
:102A700080830895EF92FF920F931F93CF93DF937C
:102A8000EC0181E0888F9B8D8C8D981305C0E889BF
:102A9000F989808185FD23C0F62E0B8D10E00F5F34
:102AA0001F4F0F731127E02E8C8DE8120BC00FB64D
:102AB00007FCFACFE889F989808185FFF5CFCE013F
:102AC000B8DFF2CF8B8DFE01E80FF11DE35AFF4F07
:102AD000F0820B8FEA89FB898081806207C0EE89D2
:102AE000FF896083E889F98980818064808381E03F
:102AF00090E0DF91CF911F910F91FF90EF9008959B
:102B0000CF93DF93EC01888D8823C1F0EA89FB899C
:102B1000808185FD05C0A889B9898C9186FD0EC08C
:102B20000FB607FCF5CF808185FFF2CFA889B98960
:102B30008C9185FFEDCFCE017CDFE8CFDF91CF9187
:102B4000089580E090E0892B19F06ADF811125C09B
:102B500080E090E0892B41F080E090E0892B21F02B
:102B60000E94000081111CC080E090E0892B41F0A0
:102B700080E090E0892B21F00E940000811113C0B9
:102B800080E090E0892BA1F080E090E0892B81F03B
:102B90000E94000081110AC008950E940000D8CF51
:102BA0000E940000E1CF0E940000EACF0C940000D8
:102BB00008953FB7F8948091250690912606A0913C
:102BC0002706B091280626B5A89B05C02F3F19F00F
:102BD0000196A11DB11D3FBFBA2FA92F982F88279D
:102BE000820F911DA11DB11DBC01CD0142E0660FF8
:102BF000771F881F991F4A95D1F70895DF92EF92AA
:102C0000FF920F931F93CF93DF93EC01E62EF12CED
:102C100085E0689FB0011124FE01E60FF71F808553
:102C2000182F177086FF20C001E085E0D82E8FEFA7
:102C3000800F8F3008F001E0FE01D09EE00DF11D05
:102C4000112480858695869586958770811304C0AA
:102C5000602FCE01D3DFEBCF0F5F003169F78D819D
:102C6000811302C011501D8385E08E9DF0018F9D60
:102C7000F00D1124EC0FFD1F108681E08187128674
:102C80002296D783C683DF91CF911F910F91FF903A
:102C9000EF90DF900895FC016134C1F43F969C01F0
:102CA000265A3F4F61E0AC014E5F5F4FDF01129744
:102CB0001C9211966C93108213974D935C933596EA
:102CC000E217F30799F7FC01158208953D9621E07C
:102CD0003081361302C0622F91CF2F5F359620319D
:102CE000B9F70895CF93DF93FC01862F807809F020
:102CF00051C0283008F04FC0442321F0958197300F
:102D000009F449C0EF012D96A0E0B0E0119698813A
:102D1000911103C0662331F021C02596AF30B10573
:102D2000A9F739C085E08A9FE0018B9FD00D11245F
:102D3000CE0FDF1F442331F081E4888785818F5FC8
:102D4000858302C081E0888725E02A9FC0012B9FF0
:102D5000900D1124E80FF91F80851DC06770660F64
:102D6000660F660F442341F0606485818F5F858321
:102D70008770687F682B03C02770687B622B25E013
:102D80002A9FC0012B9F900D1124E80FF91F608727
:102D9000862F01C080E0DF91CF910895611102C0BC
:102DA00006960895FC013D9621E03081361307C058
:102DB00035E0239F800D911D1124069608952F5F05
:102DC0003596203191F780E090E008950E949D476C
:102DD0001F920F920FB60F9211240BB60F922F93E2
:102DE0003F934F935F936F937F938F939F93AF9393
:102DF000BF93EF93FF938EE893E01BDEFF91EF917B
:102E0000BF91AF919F918F917F916F915F914F9102
:102E10003F912F910F900BBE0F900FBE0F901F9000
:102E200018951F920F920FB60F9211240BB60F92A6
:102E30002F938F939F93EF93FF93E0919E03F091D5
:102E40009F038081E091A403F091A50382FD12C04D
:102E500090818091A7038F5F8F732091A8038217C1
:102E600051F0E091A703F0E0E257FC4F958F80937B
:102E7000A70301C08081FF91EF919F918F912F91C6
:102E80000F900BBE0F900FBE0F901F901895362F0E
:102E900090E0FC01E652FE4F4491FC01EC5CFE4FD9
:102EA0002491FC01EC56FE4F9491992309F46BC0D8
:102EB000442309F455C050E0FA013197E231F1059D
:102EC00008F04EC08827EE58FF4F8F4F0C94A34553
:102ED000809180008F7707C0809180008F7D03C034
:102EE00080918000877F809380003AC084B58F777F
:102EF00002C084B58F7D84BD33C08091B0008F77D0
:102F000003C08091B0008F7D8093B00029C0809174
:102F100090008F7707C0809190008F7D03C08091D3
:102F20009000877F809390001BC08091A0008F77D6
:102F300007C08091A0008F7D03C08091A000877F93
:102F40008093A0000DC0809120018F7707C08091F1
:102F500020018F7D03C080912001877F8093200115
:102F6000E92FF0E0EE0FFF1FE658FE4FA591B49158
:102F70008FB7F894EC91311103C020952E2301C036
:102F80002E2B2C938FBF08958230910538F0880F37
:102F9000991F880F991F05970197F1F708958F9250
:102FA0009F92AF92BF92CF92DF92EF92FF926B010E
:102FB0007C01FFDD4B015C01C114D104E104F1048B
:102FC000E9F0F7DDDC01CB0188199909AA09BB09F1
:102FD000883E9340A105B10578F321E0C21AD108DB
:102FE000E108F10888EE880E83E0981EA11CB11C50
:102FF000C114D104E104F10421F7DECFFF90EF907A
:10300000DF90CF90BF90AF909F908F9008952FB793
:10301000F894609121067091220680912306909188
:1030200024062FBF08951F920F920FB60F921124FE
:103030002F933F938F939F93AF93BF9380912106DC
:1030400090912206A0912306B0912406309120068B
:1030500023E0230F2D3720F40196A11DB11D05C0DB
:1030600026E8230F0296A11DB11D20932006809310
:10307000210690932206A0932306B0932406809104
:10308000250690912606A0912706B0912806019664
:10309000A11DB11D8093250690932606A0932706B7
:1030A000B0932806BF91AF919F918F913F912F913F
:1030B0000F900FBE0F901F9018950F931F93CF93F3
:1030C000DF93C82FD62F8A0180E591E00E94292541
:1030D0000E9425248C2F82600E942225CD2FD0E0D3
:1030E000209721F0BE01C8010E940724C00FD11F04
:1030F0000E9427240E942125CE01DF91CF911F91AC
:103100000F9108951F93CF93DF9300D0CDB7DEB713
:10311000182F80E591E06B830E9429250E942524C9
:10312000126019836B816A8362E070E0CE010196C0
:103130000E9407240E9427240E9421250F900F90AF
:103140000F90DF91CF911F9108951F93CF93DF933D
:103150001F92CDB7DEB7182F80E591E00E94292598
:103160000E942524812F0E94222580E00E94222592
:1031700089830E9427240E94212589810F90DF9155
:10318000CF911F9108959F92AF92BF92CF92DF92FD
:10319000EF92FF920F931F93CF93DF937C01C42F85
:1031A000122F992493946C01C60ED11CC60ED11C0B
:1031B00086E5C80ED11CA42EB12CABE2AA0EB11C20
:1031C000AA0CBB1CAE0CBF1CF60180819181DC01F6
:1031D000ED91FC910280F381E02D202F412F6C2F87
:1031E0001995803EB9F4C11109C061E088EE8ADF0B
:1031F00066E670E080E090E0D2DE16C0F5018081E6
:103200009181DC01ED91FC910284F385E02D612F29
:1032100019950AC08D3031F49FEF990D933008F065
:103220003DC016C081113AC0F60180819181DC0158
:10323000ED91FC910190F081E02D202F412F6C2F1A
:103240001995D82F8D3059F48FEF890D833048F4BC
:1032500064E670E080E090E0A2DE9394B5CF88232E
:10326000E1F0C11109C061E088EE4CDF66E670E074
:1032700080E090E094DE11C0EC2FF0E0BB96EE0F02
:10328000FF1FEE0DFF1D80819181DC01ED91FC910E
:103290000284F385E02D612F19958D2FDF91CF9159
:1032A0001F910F91FF90EF90DF90CF90BF90AF9064
:1032B0009F9008958F929F92AF92BF92CF92DF928C
:1032C000EF92FF920F931F93CF93DF93862E942E4E
:1032D00059019DDE6B017C0128E8C20E23E1D21E5C
:1032E000E11CF11C00E010E0D0E0C0E098288FDE87
:1032F000DC01CB018C199D09AE09BF09B7FF28C0BD
:10330000692D80EFFFDE83DEDC01CB018C199D0986
:10331000AE09BF09B7FF07C088EC17DF87FFF3CFFF
:1033200060E888ECEFDE88EF10DFC82FCF70C43084
:1033300019F0CE3051F00CC00F5F1F4FA114B10433
:10334000B1F20A151B0599F603C0DF5FD33079F699
:103350008C2FDF91CF911F910F91FF90EF90DF9015
:10336000CF90BF90AF909F908F9008952F923F92F3
:103370004F925F926F927F928F929F92AF92BF9285
:10338000CF92DF92EF92FF920F931F93CF93DF9331
:1033900000D01F921F92CDB7DEB77D836C835A0198
:1033A0006901FB0121808FEF820D803408F06BC032
:1033B0002EDE2B013C01F8E84F0EF3E15F1E611C8D
:1033C000711CEC81FD81828180FD02C060E401C03E
:1033D00060E888EE97DE20E0312CC114D10409F4B6
:1033E00043C076012C143D0408F47101EA82A8015F
:1033F0006E2D80E162DE6E2D88E384DEEC81FD813E
:103400006081606280EF7EDE88EC9FDE87FFFCCF0C
:1034100060E888EC77DE88EF98DE282F2F70812C0B
:10342000912C1982222359F02B83F1DDDC01CB0191
:1034300084199509A609B7092B81B7FD05C0CE18D7
:10344000DF080E0D1F1DC9CF2630F9F02E3009F40C
:103450004CC0243049F4FFEF8F1A9F0AA114B10425
:1034600041F18A149B0429F588EF2B836EDE85FBDE
:10347000882780F9EC81FD81928180FB90F992830D
:103480002B81822F38C08AED36C088EF5EDE85FB47
:10349000882780F991E08927EC81FD81928180FB6A
:1034A00090F9928390FD02C060E401C060E888EE6C
:1034B00029DE60E088E326DEF801608180E122DE1B
:1034C0006A8188E31FDEEC81FD816081606280EFAC
:1034D00019DE88EC3ADE87FFFCCF60E888EC12DE6C
:1034E00088EF33DE282F2F709DCF89818F5F8983EE
:1034F0008330F9F6B9CF0F900F900F900F900F9087
:10350000DF91CF911F910F91FF90EF90DF90CF90BF
:10351000BF90AF909F908F907F906F905F904F90F3
:103520003F902F9008956F927F928F929F92AF92CB
:10353000BF92CF92DF92EF92FF920F931F93CF93A0
:10354000DF93FC018B0149015A017B01A18DB28DF2
:103550009C9185A189238C93A38DB48D9C9186A188
:1035600089238C93808D823001F181111CC08EB132
:103570008F7C8EB97398A59880910201877E809385
:103580000201809102018F7980930201A58DB68D91
:103590009C9187A189238C93A58DB68D9C9183A145
:1035A000892B8C9310C0833071F48EB180638EB9F7
:1035B000739AA59880910201877E80930201809181
:1035C00002018F790EC08EB18F7C8EB9739AA59847
:1035D00080910201877E80930201809102018F79A0
:1035E000806480930201A58DB68D9C9187A189236B
:1035F0008C93A58DB68D9C9183A1892B8C93A38DE3
:10360000B48D9C9182A1892B8C938EB1212F30E0B7
:10361000A901440F551F440F551F942F90738F7CA1
:10362000892B8EB98EB1A90155954795559547952A
:10363000742F7870877F872B8EB984B3D901AA0F36
:10364000BB1F4A2F4072742E8F7D842B84BB8091C8
:103650000201A901D3E055954795DA95E1F7642F6A
:103660006871662E877E862B80930201409102014D
:1036700085E0220F331F8A95E1F7822F8076242F71
:103680002F79282B20930201258D368DD9015C914D
:1036900047A145234C93258D368DE901588143A1DF
:1036A000452B48832EB1A8015527EA01CC0FDD1F19
:1036B000CC0FDD1FC0732F7C2C2B2EB96EB19A015D
:1036C0003595279535952795D22FD870262F277FAA
:1036D0002D2B2EB964B39A01220F331F122F1072B3
:1036E000D12E262F2F7D212B24BB209102018A0170
:1036F00033E0159507953A95E1F7302F3871C32ED1
:10370000277E232B209302012091020165E0440FC4
:10371000551F6A95E1F7642F60762F79262B209349
:103720000201458D568DDA013C9127A123232C936C
:10373000458D568DDA013C9123A1232B2C93A501B5
:103740009401215031094109510949015A01A6E06A
:10375000B694A79497948794AA95D1F78401FE1004
:103760001DC20150110908F465C080E1A58DB68D18
:103770006C9197A196239C93A58DB68D6C9193A186
:10378000962B9C93A58DB68D6C9197A196239C93B7
:10379000A58DB68D6C9193A1962B9C93A58DB68D1E
:1037A0006C9197A196239C93A58DB68D6C9193A156
:1037B000962B9C93A58DB68D6C9197A196239C9387
:1037C000A58DB68D6C9193A1962B9C93A58DB68DEE
:1037D0006C9197A196239C93A58DB68D6C9193A126
:1037E000962B9C93A58DB68D6C9197A196239C9357
:1037F000A58DB68D6C9193A1962B9C93A58DB68DBE
:103800006C9197A196239C93A58DB68D6C9193A1F5
:10381000962B9C93A58DB68D6C9197A196239C9326
:10382000A58DB68D6C9193A1962B9C93815009F038
:103830009DCF97CF2F732150C8F0A58DB68D9C9149
:1038400087A189238C93A58DB68D9C9183A1892B0B
:103850008C93A58DB68D9C9187A189238C93A58D82
:10386000B68D9C9183A1892B8C93E5CFA18DB28DD0
:103870009C9181A1892B8C93DF91CF911F910F9106
:10388000FF90EF90DF90CF90BF90AF909F908F9080
:103890007F906F900895FEB0AF2DAF7CFA2EF92A7D
:1038A000FEB8FEB0BF2DB77FFB2EF72AFEB8F4B2EC
:1038B000AF2DAF7DFA2EF728F4BAF0900201BF2D9C
:1038C000B77EFB2EF628F0920201F0900201AF2D98
:1038D000AF79FA2EF82AF0920201E58CF68CD70126
:1038E0009C90A7A0A920AC92E58CF68CD7019C9067
:1038F000A3A0A928AC92FEB0BF2DBF7CFB2EFC2A52
:10390000FEB8FEB0AF2DA77FFA2EFD2AFEB8F4B2A6
:10391000BF2DBF7DFB2EFD28F4BAF0900201AF2D24
:10392000A77EFA2EFC28F0920201F0900201BF2D32
:10393000BF79FB2EF62AF0920201E58CF68CD701B6
:103940009C90A7A0A920AC92E58CF68CD7019C9006
:10395000A3A0A928AC92FEB0BF2DBF7CFB2EF92AF4
:10396000FEB8FEB0AF2DA77FFA2EF72AFEB8F4B24C
:10397000BF2DBF7DFB2EF728F4BAF0900201AF2DCA
:10398000A77EFA2EF628F0920201F0900201BF2DD8
:10399000BF79FB2EF82AF0920201E58CF68CD70154
:1039A0009C90A7A0A920AC92E58CF68CD7019C90A6
:1039B000A3A0A928AC92FEB0BF2DBF7CFB2EFC2A91
:1039C000FEB8FEB0AF2DA77FFA2EFD2AFEB8F4B2E6
:1039D000BF2DBF7DFB2EFD28F4BAF0900201AF2D64
:1039E000A77EFA2EFC28F0920201F0900201BF2D72
:1039F000BF79FB2EF62AF0920201E58CF68CD701F6
:103A00009C90A7A0A920AC92E58CF68CD7019C9045
:103A1000A3A0A928AC92FEB0BF2DBF7CFB2EF92A33
:103A2000FEB8FEB0AF2DA77FFA2EF72AFEB8F4B28B
:103A3000BF2DBF7DFB2EF728F4BAF0900201AF2D09
:103A4000A77EFA2EF628F0920201F0900201BF2D17
:103A5000BF79FB2EF82AF0920201E58CF68CD70193
:103A60009C90A7A0A920AC92E58CF68CD7019C90E5
:103A7000A3A0A928AC92FEB0BF2DBF7CFB2EFC2AD0
:103A8000FEB8FEB0AF2DA77FFA2EFD2AFEB8F4B225
:103A9000BF2DBF7DFB2EFD28F4BAF0900201AF2DA3
:103AA000A77EFA2EFC28F0920201F0900201BF2DB1
:103AB000BF79FB2EF62AF0920201E58CF68CD70135
:103AC0009C90A7A0A920AC92E58CF68CD7019C9085
:103AD000A3A0A928AC92FEB0BF2DBF7CFB2EF92A73
:103AE000FEB8FEB0AF2DA77FFA2EF72AFEB8F4B2CB
:103AF000BF2DBF7DFB2EF728F4BAF0900201AF2D49
:103B0000A77EFA2EF628F0920201F0900201BF2D56
:103B1000BF79FB2EF82AF0920201E58CF68CD701D2
:103B20009C90A7A0A920AC92E58CF68CD7019C9024
:103B3000A3A0A928AC92FEB0BF2DBF7CFB2EFC2A0F
:103B4000FEB8FEB0AF2DA77FFA2EFD2AFEB8F4B264
:103B5000BF2DBF7DFB2EFD28F4BAF0900201AF2DE2
:103B6000A77EFA2EFC28F0920201F0900201BF2DF0
:103B7000BF79FB2EF62AF0920201E58CF68CD70174
:103B80009C90A7A0A920AC92E58CF68CD7019C90C4
:103B9000A3A0A928AC92BA94B1107DCE015011090E
:103BA00018F030E1B32E77CE2F73215008F45ECE9B
:103BB0003EB13F7C392B3EB93EB1377F372B3EB902
:103BC00034B33F7D372934BB30910201377E36292B
:103BD00030930201309102013F79382B309302017A
:103BE000458D568DDA011C9137A131233C93458DCB
:103BF000568DDA011C9133A1312B3C933EB13F7CB1
:103C00003C2B3EB93EB1377F3D2B3EB934B33F7DAF
:103C10003D2934BB30910201377E3C2930930201AB
:103C2000309102013F79362B30930201458D568D3C
:103C3000DA011C9137A131233C93458D568DDA0171
:103C40001C9133A1312B3C93B0CFCF93DF93FC0178
:103C5000A18DB28D9C9185A189238C9380859185BE
:103C6000A38DB48D3C9126A123232C932EB12F7CC0
:103C700020612EB97398A598A2E0B1E02C91277E1F
:103C80002C932C912F792C93C58DD68D388127A11B
:103C900023232883C58DD68D388123A1232B288308
:103CA000C38DD48D388122A1232B28834EB19C0152
:103CB00021503109232F3327B901660F771F660F73
:103CC000771F6073942F9F7C962B9EB99EB1A9019C
:103CD00055954795559547954870977F942B9EB974
:103CE00094B3A901440F551F40729F7D942B94BB40
:103CF0009C91A901C3E055954795CA95E1F7487194
:103D0000977E942B9C939C91D5E0220F331FDA95DC
:103D1000E1F720769F79292B2C93C58DD68D2881AC
:103D200097A192239883C58DD68D288193A1922B3C
:103D30009883C38DD48D288196A1922398839EB1B8
:103D40009F7C90619EB97398A5989C91977E9C9357
:103D50009C919F7990629C93C58DD68D288197A167
:103D600092239883C58DD68D288193A1922B988319
:103D7000C38DD48D288192A1922B98832EB181502E
:103D800090E0AC01440F551F440F551F40732F7C2A
:103D9000242B2EB92EB1AC015595479555954795D5
:103DA0004870277F242B2EB924B3AC01440F551F34
:103DB00040722F7D242B24BB2C91AC01C3E0559580
:103DC0004795CA95E1F74871277E242B2C932C91B7
:103DD000D5E0880F991FDA95E1F78076922F9F79C9
:103DE000892B8C93C58DD68D988187A18923888353
:103DF000C58DD68D988183A1892B888382859385F3
:103E0000C38DD48D388126A1232328832EB12F7C06
:103E100020622EB97398A5982C91277E2C932C9113
:103E20002F792C93C58DD68D388127A12323288304
:103E3000C58DD68D388123A1232B2883C38DD48DA6
:103E4000388122A1232B28834EB19C0121503109B6
:103E5000232F3327B901660F771F660F771F607313
:103E6000942F9F7C962B9EB99EB1A901559547959D
:103E7000559547954870977F942B9EB994B3A901A7
:103E8000440F551F40729F7D942B94BB9C91A901B8
:103E9000C3E055954795CA95E1F74871977E942BF5
:103EA0009C939C91D5E0220F331FDA95E1F72076A1
:103EB0009F79292B2C93C58DD68D288197A192238C
:103EC0009883C58DD68D288193A1922B9883C38D1D
:103ED000D48D288196A1922398839EB19F7C906275
:103EE0009EB97398A5989C91977E9C939C919F797D
:103EF00090629C93C58DD68D288197A1922398833B
:103F0000C58DD68D288193A1922B9883C38DD48D96
:103F1000288192A1922B98832EB1815090E0AC0120
:103F2000440F551F440F551F40732F7C242B2EB96F
:103F30002EB1AC0155954795559547954870277F0B
:103F4000242B2EB924B3AC01440F551F40722F7D92
:103F5000242B24BB2C91AC01C3E055954795CA9501
:103F6000E1F74871277E242B2C932C91D5E0880F04
:103F7000991FDA95E1F78076922F9F79892B8C93A0
:103F8000A58DB68D9C9187A189238C93A58DB68D27
:103F90009C9183A1892B8C93A18DB28D9C9181A141
:103FA000892B8C93DF91CF91089508952F923F92A2
:103FB0004F925F926F927F928F929F92AF92BF9239
:103FC000CF92DF92EF92FF920F931F93CF93DF93E5
:103FD000CDB7DEB72D970FB6F894DEBF0FBECDBFBD
:103FE0009D878C876A30A1F4DC0154962C915497FC
:103FF0001E968D919C911F97B8E02B9F800D911D6F
:104000001124EC85FD859787868715861486FBC06D
:104010006D3009F4F8C0AC85BD855496BC91B98368
:10402000EC85FD850288F389E02DFD83EC83AC856A
:10403000BD8550960D90BC91A02DBF83AE83EC85BD
:10404000FD8586849784C484D58480859185C8162F
:10405000D906C4F0AC85BD8554964C915497242F55
:1040600030E01C968D919C911D97B6E04B9F800D82
:10407000911D1124EC85FD85958784874689411122
:104080009EC0C1C0AC85BD851A968D919C911B9731
:1040900088169906FCF6B981AB2EB12CC601E6E074
:1040A000BE9F800D911D1124181619069CF6C5019E
:1040B00023E0880F991F2A95E1F7880D991D18169E
:1040C000190644F6AC85BD8557968C91811103C0C5
:1040D000603B08F06F5FB5E06B9FB00111241601E3
:1040E0001A82FB01EC19FD09F987E8879401285F22
:1040F0003F4F3B872A873A81353049F0E885F9857B
:10410000E20DF31DE05EFD4F54915B8301C01B8205
:10411000240134018B8180FF13C0AC85BD85ED91F6
:10412000FC91B981B13031F40480F581E02D2E810C
:104130003F8119C00684F785E02DEE80FF801EC008
:10414000EC81FD812E813F81E217F307F1F0AC8510
:10415000BD85ED91FC91B981B13059F40480F581B0
:10416000E02D2C813D81A301B1018C859D851995A0
:104170000CC00684F785E02DEC80FD80850195015B
:10418000A201B6018C859D851995EB81E695EB839F
:10419000FFEF6F1A7F0A4A0C5B1C2A853B8562166B
:1041A000730609F0B7CF3A813F5F3A835FEF251A74
:1041B000350ACA0CDB1C363009F09DCF4BCF4AEFD5
:1041C0004203B001439F700D1124AC85BD85189644
:1041D0004D915C911997460F571F481759079CF44A
:1041E00083E0220F331F8A95E1F71E968D919C91F3
:1041F0001F97280F391F1F963C932E931E971D96CD
:104200001C921E921C9781E090E02D960FB6F894B8
:10421000DEBF0FBECDBFDF91CF911F910F91FF90F9
:10422000EF90DF90CF90BF90AF909F908F907F9056
:104230006F905F904F903F902F900895EF92FF9274
:104240000F931F93DC01ED91FC9111971A960D913C
:104250001C911B9718962D913C9119970684F78510
:10426000E02D7B0140E050E060E070E019951F9187
:104270000F91FF90EF9008956F927F928F929F928F
:10428000AF92BF92CF92DF92EF92FF920F931F9364
:10429000CF93DF936C015A014801EB013B01620EA1
:1042A000731EC615D70574F4D601ED91FC910084F8
:1042B000F185E02D87019401A501BE01C601199584
:1042C0002196EFCFDF91CF911F910F91FF90EF904B
:1042D000DF90CF90BF90AF909F908F907F906F9026
:1042E0000895EF92FF920F931F93DC01ED91FC91E3
:1042F000260F371F215031090680F781E02D780104
:104300008A0119951F910F91FF90EF900895EF92F8
:10431000FF920F931F937801DC01ED91FC91240F24
:10432000351F8901015011090680F781E02D9B019D
:1043300019951F910F91FF90EF9008956F927F92C2
:104340008F929F92AF92BF92CF92DF92EF92FF92A5
:104350000F931F93CF93DF93EC014B015A01690137
:104360003801E881F9810284F385E02D87011995F0
:10437000E881F981A501460D571D4150510902847C
:10438000F385E02D9601B401CE011995E881F981FC
:104390000084F185E02D9301A501B401CE011995AA
:1043A000E881F981C80CD91CB601615071090084FB
:1043B000F185E02D9301A501CE011995DF91CF91F3
:1043C0001F910F91FF90EF90DF90CF90BF90AF9033
:1043D0009F908F907F906F9008952F923F924F9271
:1043E0005F926F927F928F929F92AF92BF92CF9285
:1043F000DF92EF92FF920F931F93CF93DF9300D042
:10440000CDB7DEB74C017B836A836A01590117017E
:104410009801241B350B37FF03C0319521953109D5
:10442000C5014A815B81841B950B97FF03C0919561
:104430008195910951E059838217930714F01982ED
:104440000BC09A2D8B2D5801092F182F9A818B8123
:10445000DB82CA82C92ED82E8A819B81A816B90612
:104460005CF49C2D8D2D6801092F182F9A818B816A
:10447000BB82AA82A92EB82E2501AA81BB814A1A25
:104480005B0A38016C187D0877FE03C07194619453
:104490007108720157FE03C0BFEFEB1AFB0AF594D7
:1044A000E794C016D1061CF00FEF1FEF1FC001E00C
:1044B00010E01CC0D401ED91FC91B9810480F5811C
:1044C000E02D9101BB23C1F04A815B81B601C4019B
:1044D0001995E618F708F7FE04C0C00ED11EE40CCB
:1044E000F51CEA81FB813196FB83EA834A815B817B
:1044F000A416B506FCF604C0A6016A817B81E7CF4D
:104500000F900F900F90DF91CF911F910F91FF901F
:10451000EF90DF90CF90BF90AF909F908F907F9063
:104520006F905F904F903F902F9008956C3475403E
:1045300021F481E0443C554009F080E00895FC01FD
:1045400084A10895FC018681089581E0089580E0AA
:104550000895089580E00895CF92DF92EF92FF9240
:104560000F931F93CF93DF93CDB7DEB7A4970FB60A
:10457000F894DEBF0FBECDBFFB019E012F5F3F4F02
:10458000790120E2D7011D922A95E9F725E02983D8
:104590002FEF2A8321812D8320812E8322812F8357
:1045A000238128872481298725812A8726812B87B3
:1045B0001782FC01E358FF4F208130E0F901EE0F34
:1045C000FF1F2E0F3F1F280F391FF901EB59FF4F17
:1045D0004081FC016681C480D5801CA21BA21AA266
:1045E00019A28E010F5D1F4F9E012D5D3F4FC60129
:1045F0000E942B1281110AC049A15AA16BA17CA172
:10460000870120E230E0C6010E94B619A4960FB6D9
:10461000F894DEBF0FBECDBFDF91CF911F910F91F8
:10462000FF90EF90DF90CF9008958858910994CF34
:10463000CF92DF92EF92FF920F931F93CF93DF936E
:104640001F92CDB7DEB7FC01EA57FF4F4081518181
:104650004C34554009F09EC0329740815181443C12
:10466000554009F097C0F801422F6C018C010857A2
:104670001F4F223008F474C0309709F471C0808154
:10468000813059F441504C3310F450E002C04CE3F7
:1046900050E0BF016F5F7F4F10C0813109F07AC0D9
:1046A000243008F477C043504C3310F450E002C07B
:1046B0004CE350E0BF016D5F7F4FC80102960E943E
:1046C000A147F801268137814085B801625C7F4FA0
:1046D000FB0180819181A281281739074A0709F4DB
:1046E0003FC07601F9ECEF0EF11C80959095A095F6
:1046F00082239323A423F70180839183A283DB0188
:104700002D933D934C9360E070E0C80173D6382F31
:1047100061E070E0C80139836DD639818111326062
:1047200062E070E0C801398365D639818111346057
:1047300063E070E0C80139835DD63981811138604A
:10474000F601EC52FF4F9081391751F09095932369
:10475000292F2F70D7019C91907F922B9C933083AF
:10476000F601ED52FF4F80818823A1F0D801ED9131
:10477000FC91B60164537F4F0190F081E02DC80198
:104780000F90DF91CF911F910F91FF90EF90DF90ED
:10479000CF9019940F90DF91CF911F910F91FF90BF
:1047A000EF90DF90CF900895CF93CFB7F89480919A
:1047B0002906811124C0E9ECF1E08491E9E6F1E0F9
:1047C0009491E82FF0E0EE0FFF1FE65EFE4FA591FB
:1047D000B491EC91E92321F461E085E30E9447174D
:1047E00085E30E944E138CB580618CBD8CB58064CE
:1047F0008CBD84E30E944E1383E30E944E1380918C
:1048000029068F5F80932906CFBFCF910895FC01C1
:1048100020812EBDDC0131969C01260F371FE21747
:10482000F30741F051910DB407FEFDCF4EB55EBDCB
:104830004D93F5CF61507109FC01E60FF71F0DB4E0
:1048400007FEFDCF8EB58083089574980895749AFD
:104850000895AF92BF92CF92DF92EF92FF920F93A3
:104860001F93CF93DF936C01CC0CDD1CF601EC5849
:10487000FB4F208131812130310551F030F0223061
:10488000310581F440E058EF05C040EE5FEF02C013
:1048900040EE57E05093A5044093A4045093A30422
:1048A0004093A204EC012396FE01EE0FFF1FEC588B
:1048B000FB4F408151814217530709F440C02AE061
:1048C000289F5001299FB00C112488E2A80EB11C2A
:1048D000E12CF12C0AE010E020E431E0A50166E9CA
:1048E00070E082E994E00E94D32F86E990E09093F3
:1048F0009F0480939E04B092A104A092A004F601AC
:10490000EC58FB4F208131812230310548F446E0DC
:10491000429FC001439F900D112480589B4F02C0BD
:104920008CE894E00E949D13CC0FDD1FCC58DB4F28
:10493000F601EC58FB4F80819181998388838FEF3A
:104940009FEF9093A5048093A4049093A304809375
:10495000A204DF91CF911F910F91FF90EF90DF9014
:10496000CF90BF90AF900895FC018FE7828383833F
:1049700084838583168217821086DF01DE961D925E
:104980001D921C9212971186128684A1806884A3BE
:1049900080A5806880A785A5806885A781A9806893
:1049A00081AB86A9806886AB82AD806882AF88E0E3
:1049B000868386AF13968C91807F8C931B961C9276
:1049C00017971C9211971C9214961C9211971C9287
:1049D00011971C9214961C9211971C92E55BFF4F45
:1049E00010820895CF93DF93FC01EA57FF4F208197
:1049F00031812C34354009F5329720813181243CB6
:104A00003540D9F4EC0188579F4FAEDFFE01EB52E1
:104A1000FF4F0190F081E02D309711F019950DC0F6
:104A2000FE01E253FF4F10823196108231968FEFD4
:104A30008083CD52DF4F81E0888380E0DF91CF918A
:104A4000089508958EBD00000DB407FEFDCF8EB50C
:104A500008958CBD9DBD08951F93CF93DF9300D023
:104A6000CDB7DEB7182F80E591E06B83F2DFEDDE86
:104A7000126019836B816A8362E070E0CE01019657
:104A8000C6DEE5DE0F900F900F90DF91CF911F9162
:104A900008951F93CF93DF931F92CDB7DEB7182FE2
:104AA00080E591E0D6DFD1DE812FCCDF80E0CADF68
:104AB0008983CDDE89810F90DF91CF911F91089579
:104AC000CF93DF93FC01EA0180819181892B19F555
:104AD00080E027C028813981232BD1F3DB012D9180
:104AE0003C91D9019C91A381B0E0A81BB109208120
:104AF0003181A20FB31F9C93828181508283888170
:104B00009981019799838883DB018D919C911197FD
:104B100001968D939C9382818111DCCF8381828366
:104B200081E0DF91CF9108952F923F924F925F9253
:104B30006F927F928F929F92AF92BF92CF92DF92AD
:104B4000EF92FF920F931F93CF93DF9300D01F92AA
:104B5000CDB7DEB76C017C836B835A8349834C01EC
:104B600080E1880E911C5601A7E0AA0EB11C11E04D
:104B700084E0482E97E0392E3601B2E16B0E711CAD
:104B800023E0222E32E0532E8B819C81892B09F465
:104B900008C1F60180A1823059F128F4882349F038
:104BA000813079F0F1CF833039F1843009F44AC093
:104BB000EBCF548285819681908787835286518678
:104BC00010A3AE014D5F5F4FBE016F5F7F4FC50108
:104BD00077DF882309F4E5C0D6011596ED91FC91A5
:104BE0001697808191968C939197818192968C9360
:104BF000F6017682658220A2D60192968C9184304D
:104C000081F018F4823079F014C0853081F081325F
:104C100081F4D60191968C919197825014968C9341
:104C200008C0F60113A2D60114963C9202C0F60108
:104C30008483F6018581968190878783848182872A
:104C4000818740A2D60192968C918430A9F085305C
:104C500009F43EC0823009F065C0AE014D5F5F4F80
:104C6000BE016F5F7F4FC5012BDF882309F499C018
:104C7000F601858984A38DC0AE014D5F5F4FBE01F3
:104C80006F5F7F4FC5011CDF882309F48AC0D601FE
:104C900055968C915597833009F07BC098968C91EE
:104CA0009897811176C093961C93939752968C9106
:104CB000529796968C93969753968C915397979676
:104CC0008C93979757968C91579795968C9361C034
:104CD000AE014D5F5F4FBE016F5F7F4FC501F0DEDC
:104CE000882309F45EC0F60183A1882309F451C02A
:104CF00082819381009709F44CC0DC01ED91FC9115
:104D00000190F081E02D7401D60195960C91959754
:104D100097962C91979796964C91969794966C911E
:104D2000199537C0F60181A19585992319F0913025
:104D300031F02AC090E002979787868715872B81EC
:104D40003C8189819A81782F692FD6011E964D91D9
:104D50005C911F974115510539F43C832B839A834D
:104D600089831D961C9210C001962115310541F0D2
:104D700041505109F6015787468721503109E3CF49
:104D80001C821B8279836A83F60186859785892B2D
:104D900041F4D60116969C928E92159790961C928D
:104DA000F3CE0F900F900F900F90DF91CF911F9146
:104DB0000F91FF90EF90DF90CF90BF90AF909F90BA
:104DC0008F907F906F905F904F903F902F900895BD
:104DD000CF93DF93EC018C819D81DC01ED91FC91FF
:104DE0000480F581E02D6E81199581E08E8F1E8201
:104DF0001F8E18A219A21AA21CA280E0DF91CF91E7
:104E000008952F923F924F925F926F927F928F926E
:104E10009F92AF92BF92CF92DF92EF92FF920F9349
:104E20001F93CF93DF93CDB7DEB729970FB6F894D2
:104E3000DEBF0FBECDBF1C01798768875B834A83C5
:104E40006901D9018D909C901197FB01F181F98343
:104E50001D921C92DB0112968C9181FD02C060E1D3
:104E600001C060E288EE0E9482188E2D90E0A0E0E2
:104E7000B0E08C839D83AE83BF83482C2A813B8125
:104E8000A885B9854C9160E0C1010E945A19F82E9D
:104E9000B6E08B1316C088EF0E94A518829581702A
:104EA00091E08927E885F985928180FB91F99283C9
:104EB00091FD02C060E101C060E288EE0E948218AC
:104EC000DDCF811160C088EC0E94A51882FF59C017
:104ED00080E30E94A518582E90E08816990608F4E1
:104EE000542CD6018D919C91652C712CF401E81BFA
:104EF000F90BCF01F7FF02C080E090E05301861567
:104F000097050CF45C0180E591E0A3DD9EDC88E070
:104F100099DDA50160E070E0C8010E94DE48A1149F
:104F2000B10419F0B501C80172DC0A0D1B1D8FDC3C
:104F300088DD64E088EC0E948218D6018D919C91F6
:104F40001197680E791E6D927C92B9815B1618F0EC
:104F50006814790460F088EF0E94A518829581702A
:104F6000E885F985928180FB91F992830CC0EE204F
:104F700009F484CF6C817D818E819F810E94CF173F
:104F80007DCF80EFF82E8F2D29960FB6F894DEBFD7
:104F90000FBECDBFDF91CF911F910F91FF90EF908A
:104FA000DF90CF90BF90AF909F908F907F906F9049
:104FB0005F904F903F902F9008952F923F924F9285
:104FC0005F926F927F928F929F92AF92BF92CF9299
:104FD000DF92EF92FF920F931F93CF93DF93CDB7A2
:104FE000DEB7C954D1090FB6F894DEBF0FBECDBFEE
:104FF000DC019496BC912896BFAF2897BB2309F497
:10500000F6C06C010E940718F601878C90A0A1A041
:10501000B2A0DC01CB0188199909AA09BB09B7FD27
:10502000E6C00E940718D60193962C91DC01CB01B3
:10503000820F911DA11DB11DF601878F90A3A1A321
:10504000B2A3F12C9E012F5F3F4F590130E43A0D7E
:105050002A963FAF2A97460145E2840E911C16011D
:1050600083E8280E311CF601858DF81608F0BFC0C4
:105070008F2D90E0FC01EE0FFF1F8E0F9F1F8C0DF8
:105080009D1DFC01E458FF4F808190E0FC01EE0F74
:10509000FF1FDF01A80FB91FAC0DBD1DAA59BF4FDF
:1050A0002C9130E027963FAF2EAF27972501D501F1
:1050B0002996AFAE29971D922A962FAD2A972A13CB
:1050C000FACF8E0F9F1F8C0D9D1DFC01EB59FF4FDA
:1050D0004081D60116966C91169714966D907C902F
:1050E000159725961FAE1EAE259723961FAE1EAEB2
:1050F00023978E010F5B1F4F9E012D5B3F4FC30116
:105100000E942B1281110FC023964EAD5FAD2397E5
:1051100025966EAD7FAD2597E12C85019E012B5B19
:105120003F4FC3016EDE811163C027968EAD9FADE8
:1051300027978134910530F0E0E4F0E02796FFAF47
:10514000EEAF279726962FAD2697B401C401F5013F
:105150003E2F2996BFAD29973B1B321740F4419152
:10516000DC013D91CD01431799F380E003C02896FF
:105170008FAD2897942D2996BFAD29979B1B921729
:1051800038F4F20191912F01DB019D93BD01F2CF23
:1051900081112DC0D601ED91FC91008CF18DE02D97
:1051A0008501D1014C91B601C6011995D601ED9149
:1051B000FC910288F389E02DD1018C91882311F0B4
:1051C000698101C060E0C6011995009771F0DC01AA
:1051D000ED91FC910190F081E02D850126962FAD97
:1051E0002697D1014C91B6011995F3943CCF80E0FC
:1051F000C75BDF4F0FB6F894DEBF0FBECDBFDF91A8
:10520000CF911F910F91FF90EF90DF90CF90BF90C3
:10521000AF909F908F907F906F905F904F903F9056
:105220002F9008952F923F924F925F926F927F92AC
:105230008F929F92AF92BF92CF92DF92EF92FF92A6
:105240000F931F93CF93DF93CDB7DEB762970FB65F
:10525000F894DEBF0FBECDBF3C01F42E322E202EBF
:105260005C2D48A459A4CAA4DBA41E861D861C86F6
:105270001B868E01055F1F4F9E01235F3F4F598B99
:105280000E942B12598981119CC039822A82EB829B
:105290005C83BE82AD8298868F82AE014F5F5F4F86
:1052A00068E080E20E945D182B853C854F2D60E10F
:1052B000C3010E945A19182F81117FC0232C221C70
:1052C0002224221CC114D10409F46AC0ED85FE8594
:1052D0008281222009F455C08260828354013324E4
:1052E0003394A114B10409F449C05A8649864B8508
:1052F0005C856D857E85E12C86019E01275F3F4F91
:10530000C3017FDD182F8630B1F42D853E8588EFEF
:10531000298B3A8B0E94A51885FB882780F9832565
:1053200029893A89D90112969C91129780FB91F9AB
:1053300012969C93D6CF811140C0ECA5FDA5309765
:10534000A1F00190F081E02D0190F081E02DC401E9
:105350008A199B09988B8F8769857A859E01215FC1
:105360003F4FA6018CA59DA5199589859A85A81AF8
:10537000B90A8415950508F0B4CF12C011111DC0EB
:1053800014C0816082834B855C8586019201BF01D8
:10539000C3010E94B619811114C02B853C850FC032
:1053A0002B853C85211003C00AC02B853C8560EA13
:1053B0004F2DC3010E945A1904C0812F02C060E81A
:1053C000F7CF62960FB6F894DEBF0FBECDBFDF9168
:1053D000CF911F910F91FF90EF90DF90CF90BF90F2
:1053E000AF909F908F907F906F905F904F903F9085
:1053F0002F900895FC0161307105C1F01CF4672BFA
:1054000059F01EC062307105A9F063307105C1F416
:1054100096819F70955011C096819F7081E0973062
:1054200089F0992381F0913059F40DC096819F70D5
:10543000915003C096819F70935081E0933018F093
:1054400080E00895089508956115710579F0FB01D4
:1054500001900020E9F73197AF01461B570BDC01A3
:10546000ED91FC910280F381E02D199480E090E0B1
:105470000895DC01FC01ED57FF4F80818823D1F0B6
:1054800017968C911797861741F01A968C911A9758
:10549000861315C021E030E002C020E030E0F901C1
:1054A000EE0FFF1F2E0F3F1FFD01E20FF31F808540
:1054B0009185089518968D919C911997089580E093
:1054C00090E00895DC0117968C911797811106C022
:1054D00018968D919C911997892B71F01A968C9141
:1054E0001A97811118C01B968D919C911C97892B3E
:1054F00091F421E030E002C020E030E0F901EE0F4D
:10550000FF1F2E0F3F1FFD01E20FF31F678351871F
:10551000408781E0089580E00895089580E008952F
:1055200080E0089580E090E00895089580E0089577
:1055300080E0089580E0089580E0089580E0089577
:105540002F923F924F925F926F927F928F929F9293
:10555000AF92BF92CF92DF92EF92FF920F931F9381
:10556000CF93DF93CDB7DEB7C258D1090FB6F89409
:10557000DEBF0FBECDBFDC011496ED90FC901597F9
:1055800016961C911111DBC1B22E942EA62E3C0151
:10559000D701ED91FC910190F081E02D60E0C70111
:1055A00019952C01009711F416EDD5C1FC01C080AE
:1055B000D180C114D10409F4C4C11301F5E62F0E42
:1055C000311CDC0111963C922E921496BC929E01E5
:1055D00026593F4F48E050E060E0F3018481958117
:1055E0000E94E313082F81119DC1AB960FADAB97BD
:1055F000D201CD92DC92D701ED91FC910280F38132
:10560000E02D292D40E06A2DC7011995F30186830D
:10561000882309F498C1E2969FADE297EA59FF4FBB
:105620009083482F60E0D30114968D919C9115973B
:105630000E94B413D82ED701ED91FC91D20114969B
:105640001C92882361F00480F581E02DD301169629
:105650006C91C7011995F30116821D2D7CC1019033
:10566000F081E02DD30116966C91C7011995009732
:1056700009F49ACF402F033108F042E1FC01B482D3
:10568000411124C0E4968EAD9FADE497F301EA5733
:10569000FF4F91838083E6968EAD9FADE69732975C
:1056A00091838083EC96FFADEC97C058DF4FF88371
:1056B000C058D040D30116960C91169714968D9130
:1056C0009C9115972114310479F441C150E09E0159
:1056D00026593F4FF3016681848195810E94E3132F
:1056E000082F811122C1CECF602F0E94CE16FC015F
:1056F000892B09F42EC102833182208281E08383C9
:10570000F12C2E01F1E44F0E511CC3010296CF572C
:10571000DF4F99838883C158D040D2015096EE96CE
:10572000BFAFAEAFEE97C058DF4FB881C058D04082
:10573000FB1609F47DC088EB92E0F201918380832F
:10574000CF57DF4FA881B981C158D040B383A2831E
:1057500015861786168610A211A212A210A6EE9622
:105760008EAD9FADEE9796838583908787838481E6
:1057700082878187EE96AEADBFADEE97B487A387E3
:10578000F301D68084819581C258DF4F9983888345
:10579000CE57D0401F921F92A1E0B0E0AC0FBD1FCA
:1057A000BF93AF931F92B9E0BF9359E0852E912C20
:1057B000A12CB12C62E0C62EEF2C06E020E840E0E0
:1057C0006D2DC258DF4F88819981CE57D0402ADD98
:1057D0000F900F900F900F900F900F9081111DC0A0
:1057E0008B809C805F924F92E1E0F0E0EC0FFD1F18
:1057F000FF93EF931F92F0E4FF9320E840E06D2DBC
:10580000C258DF4F88819981CE57D0400BDD0F9071
:105810000F900F900F900F900F90811107C0D30140
:105820005E968C91823020F4F3947DCF082F7DC05A
:10583000F301068D023008F488C0F6806F2D848154
:1058400095810E94CE16FC01892B21F0F2823182D3
:10585000208203831F921F921F921F921F921F92FA
:10586000812C912CA12CB12CC12CD3015C96EC90F5
:105870005C9709E020E040E016966C91169714962C
:105880008D919C911597CEDC082F0F900F900F9063
:105890000F900F900F90811148C0F12CD3015D96AD
:1058A0008C915D97F81698F58F2D90E09C01220F52
:1058B000331F820F931F860D971DFC01E458FF4F85
:1058C0002081222311F1329780818770A82EB12C7C
:1058D0001F921F921F921F921F921F92812C912C38
:1058E000C12CE12C0AE021E240E0F30166818481D1
:1058F000958198DC082F0F900F900F900F900F90CC
:105900000F90882311F0853081F4F394C7CFED9187
:10591000FC910688F789E02DC301199581E0F30118
:1059200084A319C0F201D182C082D301ED91FC9110
:105930000480F581E02DC3011995102F0CC019EDDD
:105940000AC017ED08C014ED06C011ED04C008ED43
:10595000ECCF06EDEACF812FCE57DF4F0FB6F8948C
:10596000DEBF0FBECDBFDF91CF911F910F91FF9092
:10597000EF90DF90CF90BF90AF909F908F907F90EF
:105980006F905F904F903F902F9008958F929F92CD
:10599000AF92BF92CF92DF92EF92FF92CF93DF93BD
:1059A000FC01A18DB28D9C9185A189238C93A38D3F
:1059B000B48D9C9186A189238C938EB170E0DB011C
:1059C000AA0FBB1FAA0FBB1FA0738F7C8A2B8EB997
:1059D0008EB1DB01B595A795B595A795A870877F82
:1059E0008A2B8EB984B3DB01AA0FBB1FA0728F7DF7
:1059F0008A2B84BBA2E0B1E08C91EB0193E0D595BA
:105A0000C7959A95E1F7C871877E8C2B8C938C9102
:105A1000C5E0660F771FCA95E1F760768F79682B2E
:105A20006C93C58DD68D988187A189238883C58D78
:105A3000D68D988183A1892B8883C38DD48D98813D
:105A400082A1892B888383E290E0EC012197F1F712
:105A50006EB1C52EDD24EE24FF247C2D770F770F49
:105A600070736F7C672B6EB96EB149015A017AE190
:105A7000B694A794979487947A95D1F7782D7870F7
:105A8000677F672B6EB964B37C2D770F70726F7D63
:105A9000672B64BB6C9149015A01CBE1B694A79482
:105AA00097948794CA95D1F7782D7871677E672B84
:105AB0006C936C917C2D7295770F70766F79C72EF1
:105AC000C62ACC92C58DD68D788167A1672368835D
:105AD000C58DD68D788163A1672B6883EC012197F2
